:020000040800F2
:1000000038300020A1010008F13F00080D3C000835
:10001000ED3F00089D0D0008455C00080000000051
:100020000000000000000000000000000D4B000870
:10003000D70E000800000000DD4300080F4B000849
:10004000BB010008BB010008BB010008BB010008A0
:10005000BB010008BB010008BB010008BB01000890
:10006000BB010008BB010008BB010008BB01000880
:10007000BB010008BB010008BB010008BB01000870
:10008000BB010008BB010008BB010008BB01000860
:10009000BB010008BB010008BB010008BB01000850
:1000A000BB010008BB010008BB010008BB01000840
:1000B000BB010008BB010008BB010008BB01000830
:1000C000BB010008BB010008BB010008BB01000820
:1000D000BB010008155A0008655A0008B55A000807
:1000E000BB010008BB010008BB010008BB01000800
:1000F000BB010008BB010008BB010008BB010008F0
:10010000BB010008BB010008BB010008BB010008DF
:10011000BB010008BB010008BB010008BB010008CF
:10012000BB010008BB010008BB010008BB010008BF
:10013000BB010008BB010008BB010008BB010008AF
:10014000BB010008BB010008BB010008BB0100089F
:10015000BB010008BB010008BB010008BB0100088F
:10016000BB010008BB010008BB010008BB0100087F
:10017000BB010008BB010008BB0100080000000033
:10018000BB010008BB010008DFF810D000F0BAFB8B
:1001900000480047C76A0008AFF3008038300020ED
:1001A0000648804706480047FEE7FEE7FEE7FEE711
:1001B000FEE7FEE7FEE7FEE7FEE7FEE7DD4B0008B1
:1001C000890100082DE9F05F0546002092469B4614
:1001D00088460646814640241BE02846414647465D
:1001E000224600F088FA53465A46C01A914110D36D
:1001F00011461846224600F06FFA2D1A67EB0108E7
:100200004F4622460120002100F066FA17EB000954
:100210004E41201EA4F10104DFDC484631462A4647
:100220004346BDE8F09F40EA01039B0703D009E085
:1002300008C9121F08C0042AFAD203E011F8013BD2
:1002400000F8013B521EF9D27047D2B201E000F82B
:10025000012B491EFBD270470022F6E710B513466A
:100260000A4604461946FFF7F0FF204610BD2DE967
:10027000FE4F804681EA0300C00F0C46009021F03B
:10028000004123F00045B8EB0200A94105D24046E9
:10029000214690461C460B46024623F00040104380
:1002A00047D0270DC7F30A00C3F30A510290401A42
:1002B000019040286BDAC3F3130040F4801B0098D0
:1002C000924620B10023D2EB030A63EB0B0B01989B
:1002D0005946C0F14002504600F0FEF906460D4670
:1002E00050465946019A00F016FA10EB0800614199
:1002F000002487EA115284EAE7731A4340D0009A37
:1003000062B3019A012A4FEA075215DC001B61EB28
:1003100002014FF0004202EA0752CDE90042001C00
:1003200041F5801132462B4600F04DFA03B0BDE88E
:10033000F08F40462146F9E7001B61EB0201001CEB
:1003400041F5801300185B412018A2F5001747EB18
:10035000030140EAD570B6196D4111E06D084FEA0E
:10036000360645EAC0754FEA0752001B61EB0201F1
:10037000001C41F5801149084FEA30000019514135
:1003800032462B4603B0BDE8F04F00F00DBA00989E
:10039000012240000023D0EB020263EBE0730098DF
:1003A00021464FEAE074B8EB000061EB0401E9E795
:1003B00083F000435BE781F0004158E72DE9FE4FF1
:1003C00081EA030404F0004421F0004100944FF05E
:1003D000000B23F0004350EA01045ED052EA03040C
:1003E0005BD0C3F30A54C1F30A552C44A4F2F3348E
:1003F0000194A0FB0254C1F3130141F48011C3F333
:10040000130343F4801301FB024400FB034E840AF0
:10041000970A44EA815447EA8357A4FB0768029588
:100420008D0A05FB07854FEA932C04FB0C54270526
:10043000029D4FEA065847EA1637B5EB08056EEB02
:10044000070C870E920E47EA811742EA8312A7FB38
:100450000201B6EB0B0164EB00042B0D43EA0C33F5
:100460005E1844EB1C50DA465146E7FB0201C5F327
:1004700013044FEA0B3343EA14534FEA0432019C4E
:1004800043EA0603A4F10C040294009CCDE900B4F5
:1004900000F099F903B0BDE8F08F00200146F9E7BC
:1004A0002DE9F04D81EA030404F0004B21F00045F2
:1004B00014464FF0000A23F0004150EA050220D014
:1004C00054EA01021DD0C5F30A570246C5F31303CF
:1004D000C1F31300C1F30A5640F4801543F48013AE
:1004E000A7EB0608101BD64608F2FD3873EB050093
:1004F00002D308F1010801E092185B41B8F1000F46
:1005000003DA00200146BDE8F08D00204FF4801191
:10051000064684460EE0171B73EB050705D3121B36
:1005200063EB050306434CEA010C49084FEA30002F
:1005300092185B4150EA0107EDD152EA030012D054
:1005400082EA040083EA0501084305D0101BAB4191
:1005500006D20122002306E000224FF0004302E011
:100560006FF0010253101AEB06004CEB085110EB30
:100570000A0041EB0B01BDE8F04D00F015B90EB5D6
:10058000C10F80EAE0700844CA07002140F23343FB
:100590008DE80E000A460B4600F015F903B000BDC9
:1005A0000EB540F2334102910021CDE900110A4617
:1005B0000B4600F008F903B000BDC1F30A5210B5B4
:1005C000C1F3130140F2FF3341F480119A4201DA82
:1005D000002010BD40F233439A42A2F2334203DCC2
:1005E000524200F088F810BD904010BD00F000426B
:1005F00030F000400AD0C10D01F56071C0F3160063
:1006000042EA0151C20840071143704700200146E9
:100610007047000030B5041E71F1000404DB4FF098
:100620000044404264EB0101141E73F1000405DB39
:100630001C464FF00043524263EB04038B4208BF59
:10064000824230BD30B5041E71F1000404DB4FF06E
:100650000044404264EB0101141E73F1000405DB09
:100660001C464FF00043524263EB0403994208BF1B
:10067000904230BD01F0004330B421F0004150EA17
:10068000010206D00A0DA2F56072C1F31301002A1F
:1006900002DC30BC00207047440F44EAC104C100B2
:1006A000E01830BC00EBC25000F047B830B50B4644
:1006B000014600202022012409E021FA02F59D4292
:1006C00005D303FA02F5491B04FA02F52844151E66
:1006D000A2F10102F1DC30BD202A04DB203A00FA4D
:1006E00002F1002070479140C2F1200320FA03F389
:1006F000194390407047202A04DB203A21FA02F087
:100700000021704721FA02F3D040C2F1200291404B
:10071000084319467047202A06DBCB17203A41FAD6
:1007200002F043EAE07306E041FA02F3D040C2F17E
:10073000200291400843194670470029A8BF70471E
:10074000401C490008BF20F00100704710B4B0FA07
:1007500080FC00FA0CF050EA010404BF10BC7047A2
:1007600049B1CCF1200421FA04F411FA0CF118BFBC
:10077000012121430843A3EB0C01CB1D4FEA00618B
:100780004FEA102042BF002010BC704700EBC3505E
:1007900010440029A4BF10BC7047401C490008BF8A
:1007A00020F0010010BC704710B5141E73F1000456
:1007B00008DA401C41F1000192185B411A4301D153
:1007C00020F0010010BD2DE9F04D92469B4611B17D
:1007D000B1FA81F202E0B0FA80F220329046FFF7DF
:1007E0007BFF04460F4640EA0A0041EA0B015346EC
:1007F0005A46084313D0114653EA010019D0C8F1F4
:1008000040025046FFF777FF05460E4650465946D0
:100810004246FFF761FF084305D0012004E020466F
:100820003946BDE8F08D0020054346EAE0762C43CA
:1008300037430A986305E40AA0EB08000022FD0A8A
:1008400044EA47540A3002D500200146E9E7010591
:1008500010196941DDE9084500196941BDE8F04D0D
:10086000A2E72DE9F04D00231A461B1A8A4103DB4B
:1008700000200146BDE8F08DC1F30A52C1F3130117
:1008800041F480154FF0000BD10702D100186D41E3
:10089000521E0027044640F2FF11384601EB620A5F
:1008A0003E468046024600204FF48011FFF723FFAA
:1008B000C2197141BB1846EB0100B4EB030C75EB98
:1008C000000C04D3E41A65EB000517460E46241904
:1008D00008F101006D4180463428E3DDF91946EB4B
:1008E0000600091BA84103D24FF0FF32134601E076
:1008F000002213461BEB070046EB0A51BDE8F04D02
:10090000FFF752BF064C074D06E0E06840F00103D8
:1009100094E8070098471034AC42F6D3FFF738FC50
:10092000488600086886000870B58C1810F8015BCE
:1009300015F0070301D110F8013B2A1106D110F878
:10094000012B03E010F8016B01F8016B5B1EF9D17C
:100950002B0705D40023521E0DD401F8013BFAE702
:1009600010F8013BCB1A921C03E013F8015B01F86D
:10097000015B521EF9D5A142D8D3002070BD70B5DD
:100980000546AC6B206C00F0500050BB206C40F46E
:10099000007020642068806800F04050E8B9207E34
:1009A000D8B92068C06A00F4700020B1206880685F
:1009B00000F4806088B92068406820F02000216839
:1009C0004860206C20F480702064206C00F480501B
:1009D00018B9206C40F001002064204600F0E4FDCE
:1009E0000BE0206C00F0100018B1204600F0DEFD96
:1009F00003E0A06BC16C2846884770BD70B5054602
:100A0000AC6B40202064606C40F0040060642046C1
:100A100000F0CCFD70BD70B50446A56B284600F013
:100A2000C4FD70BD55494A6822F440324A604A68A4
:100A300043681A434A600268526822F4807203686D
:100A40005A6002685368026943EA022203685A60E6
:100A50000268526822F0407203685A600268526865
:100A600083681A4303685A600268926822F400623D
:100A700003689A6002689268C3681A4303689A60C0
:100A80003F4B826A9A4218D00268926822F07062E4
:100A900003689A6002689268836A1A4303689A60DE
:100AA0000268926822F0405203689A600268926875
:100AB000C36A1A4303689A600BE00268926822F0E6
:100AC000706203689A600268926822F0405203687C
:100AD0009A600268926822F0020203689A600268D3
:100AE0009368027E43EA420203689A602022125C05
:100AF000A2B10268526842F4006203685A60026858
:100B0000526822F4604203685A6002685368426A7D
:100B1000521E43EA423203685A6005E00268526896
:100B200022F4006203685A600268D26A22F47002FA
:100B30000368DA620268D36A828B521E43EA025269
:100B40000368DA620268926822F4007203689A60AD
:100B50000268936890F8302043EA422203689A6062
:100B60000268926822F4806203689A60026893685F
:100B7000426943EA822203689A6070470023014079
:100B80000100000F10B52DED068B002409E004EBE9
:100B900084003E4901EB8000408A3D4921F8140061
:100BA000641C062CF3DB3A490888FFF7F9FC9FED3B
:100BB000390B53EC102BFFF701FC9FED380B53EC76
:100BC000102BFFF76DFCFFF7F8FC36490880304921
:100BD0004888FFF7E5FC9FED2F0B53EC102BFFF738
:100BE000EDFB9FED2E0B53EC102BFFF759FCFFF79D
:100BF000E4FC2C49488026498888FFF7D1FC9FED0A
:100C0000250B53EC102BFFF7D9FB9FED240B53EC76
:100C1000102BFFF745FCFFF7D0FC224988801C49C8
:100C2000C888FFF7BDFC9FED1B0B53EC102BFFF7A3
:100C3000C5FB9FED1A0B53EC102BFFF731FCFFF7B0
:100C4000BCFC1849C88012490889FFF7A9FC9FED30
:100C5000110B53EC102BFFF7B1FB9FED100B53EC76
:100C6000102BFFF71DFCFFF7A8FC0E490881084870
:100C7000408948F6CC51484340F6FF7190FBF1F0B3
:100C800008494881BDEC068B10BD000020090020FA
:100C900054080020CDCCCCCCCCCCB340000000001C
:100CA00000FEAF4060080020002106E0491C42F22F
:100CB0001070814201D90020704705480078002853
:100CC000F4D172B60120024A107062B60120F3E737
:100CD0003C05002010B527480088401C25490880A5
:100CE00008460088322810DB00200880224800785F
:100CF00008B9012000E000201F490870084602786A
:100D00004FF400411D4800F0B1FF00F06BFBFFF70E
:100D100039FF05F03FFC1A480078012806D102F09F
:100D200075FD0020164908701649087016480078AD
:100D3000012806D102F06AFC00201349087013490B
:100D4000087013480078012806D102F05FFE0020E9
:100D50000F4908700F49087004F062FF0E480068E0
:100D60000088012805D102F07FFF00200A490968A8
:100D7000088010BD0E00002010000020001002406E
:100D80004C0500204D0500204405002045050020AD
:100D900054050020550500207405002000BFFEE723
:100DA00070B50346108809E0040A074D35F8144071
:100DB00084EA002413F8016B7440A0B20C1EA1F168
:100DC0000101F1D1108070BD340300200146087884
:100DD00010381823B0FBF3F20848805CC865032A7A
:100DE00005D908686FF30900001D886503E00868ED
:100DF0006FF309008865886D704700004086000821
:100E0000014600208A6A8B69CBB932B1012A0DD024
:100E1000022A03D0032A10D10EE000BFCB6A03F0F0
:100E20008073B3F1807F00D1012007E0CB6AB3F17A
:100E3000C07F00D1012001E000E000BF34E08B69F9
:100E4000B3F5005F1AD132B1012A07D0022A03D0CC
:100E5000032A11D10AE000BF01200EE0CB6A03F0A3
:100E60008073B3F1807F00D1012006E0CB6AB3F13B
:100E7000C07F00D1012000E000BF15E032B1012A9F
:100E800005D0022A04D0032A0CD103E000BF00BF22
:100E9000012008E0CB6A03F08073B3F1807F00D1BA
:100EA000012000E000BF00BF704730B5046824682F
:100EB00024F4802405682C60046863608468402CF6
:100EC00004D10468A2600468E16003E00468A160E2
:100ED0000468E26030BD704738B5044623466A4670
:100EE0000121084600F074F89DF8000000F01F0092
:100EF00000909DF8000040F0A400009023466A4650
:100F00000121084600F0C0F823466A46012102206C
:100F100000F05EF89DF8000000F03F0000909DF8A2
:100F2000000040F02000009023466A460121022084
:100F300000F0AAF80CB1022C14D123466A46012114
:100F4000002000F045F89DF8000000F00F00009030
:100F50009DF80000009023466A460121002000F021
:100F600093F817E0012C15D123466A460121002091
:100F700000F02EF89DF8000000F00F0000909DF8A2
:100F8000000040F05000009023466A4601210020F6
:100F900000F07AF838BD70B505461026284600F0F6
:100FA0000DF9304600F050F800F036F8044600F035
:100FB00033F840EA042400F02FF840EA042404F453
:100FC000000008B144F07F4400F01AF9204670BDDB
:100FD0002DE9F04706460C4615461F46384600F0F8
:100FE000EDF8202000EB8601601E084400F0FF09A8
:100FF000484600F029F84FF0000807E000F00CF830
:1010000005F8010B08F1010000F0FF08A045F5DB31
:1010100000F0F6F8BDE8F08708B5002000906A46B9
:101020000021012007F0D2FA18B17E2102A004F0BD
:10103000A1FE9DF8000008BD2E2E2F4253502F64B4
:10104000696F64652E63000001B5002269460120C6
:1010500007F0BCFA18B1752101A004F08BFE08BDA1
:101060002E2E2F4253502F64696F64652E6300004B
:1010700070B504460625204600F0A0F82846FFF784
:10108000E3FF00F0BDF870BD2DE9F04706460C46C1
:1010900015461F46384600F091F8402000EB8601C7
:1010A000601E084400F0FF094846FFF7CDFF4FF0EF
:1010B000000807E015F8010BFFF7C6FF08F1010073
:1010C00000F0FF08A045F5DB00F09AF8BDE8F087D6
:1010D00000B587B0142102A8FFF7BEF800BF0020BA
:1010E00001901848006840F0010016490860084661
:1010F000006800F00100019000BF00BF00BF0020A9
:1011000001900846006840F0020008600846006848
:1011100000F00200019000BF00BF4FF400400290B9
:1011200001200390002004900320059002A90648A6
:1011300000F094FC8020029002A9044800F08EFC8C
:1011400007B000BD303802400000024000040240F9
:1011500010B52DED028B04462046FFF71CFF08EE6C
:10116000100AB8EEC80ADFED0A0A20EE200ADFED09
:10117000090A20EE200ADFED080A80EE201ABCEEF4
:10118000C10AF0EE408AB8EE680ABDEC028B10BDD1
:101190000000004500007A440000004B10B5FFF746
:1011A00097FF0020FFF764FF0220FFF761FF002098
:1011B000FFF792FE0220FFF78FFE10BD10B5044628
:1011C0000CB1012C0BD100224FF400410A4800F071
:1011D0004DFD01228021094800F048FD0BE0022C62
:1011E00009D10122D103044800F040FD00228021F2
:1011F000024800F03BFD10BD000002400004024028
:1012000010B50122D103044800F030FD01228021F5
:10121000024800F02BFD10BD000002400004024017
:1012200010B504F091F804F0BDF804F0E9F802F00C
:1012300041FD02F043FE02F0ABFD06221A491B48B5
:1012400000F076FA02F0F6FC03F0E4FB02F04AFE4E
:1012500002F074FE02F09EFE03F0AEF803F040F8D8
:10126000FFF79CFF0123C8221149124802F0D7FC66
:101270000123C8221049114802F0D1FC0123C822E1
:101280000F49104802F0CBFC4FF480720E49002049
:1012900003F010FA80220D49D00003F00BFA0CA0E5
:1012A00004F0BCFD10BD00003008002088070020BD
:1012B000700A0020580A0020E00C0020C80C002012
:1012C000500F0020380F0020A8110020A812002085
:1012D000496E69742E2E2E2E2E4F4B2121210D0A80
:1012E0000000000006291CD2DFE801F003070B0F05
:1012F00013170D4A1268506314E00B4A126890638A
:1013000010E00A4A126850630CE0084A12689063C1
:1013100008E0064A1268D06304E0044A12681064C8
:1013200000E000BF00BF7047E40500202406002055
:101330002DE9F04704460F464FF000086568A6689F
:10134000D4F80C90B9F1000F32D0B54218DB206907
:10135000401B636900FB03F2206805FB030138466C
:10136000FEF761FF2069A0EB0508636903FB05F246
:1013700008FB03702168FEF756FFD4F810802CE0BC
:101380002069801B636900FB03F2206806FB0301F0
:101390003846FEF748FF2069A0EB0608636903FBA7
:1013A00005F208FB03702168FEF73DFFA84414E036
:1013B000B5420CDBA81B636900FB03F2206806FB47
:1013C00003013846FEF72FFFA5EB060805E0A560F0
:1013D0000020E060401EBDE8F087A5600020E060CE
:1013E0004046F8E710B5002410E00A4830F8140031
:1013F00004EB8401084A02EB8101488004EB84017C
:1014000002EB810002F07AFC601C84B2062CECDB5B
:1014100010BD0000300800202009002038B5024629
:101420000020009000BF92F83C00012801D102206A
:1014300038BD012082F83C0000BF0868092816D991
:101440001068C0680C780A3C04EB44050724AC40E3
:10145000A0431468E0600C780A3C04EB44048868FC
:10146000A0401468E46820431468E06013E010684A
:1014700000690C7804EB44050724AC40A0431468D1
:1014800020610C7804EB44048868A0401468246947
:101490002043146820614868072817D21068406B01
:1014A0000C79641E04EB84051F24AC40A04314682F
:1014B0006063088880B20C79641E04EB8404A04049
:1014C0001468646B20431468606331E048680D2839
:1014D00017D21068006B0C79E41F04EB84051F24FD
:1014E000AC40A04314682063088880B20C79E41FE4
:1014F00004EB8404A0401468246B20431468206328
:1015000016E01068C06A0C790D3C04EB84051F24BA
:10151000AC40A0431468E062088880B20C790D3CAE
:1015200004EB8404A0401468E46A20431468E06279
:10153000194B1A4C1068A04206D10868122803D132
:10154000586840F480005860144C1068A0421CD1C8
:101550000868102802D00868112816D1586840F48D
:1015600000005860086810280FD10D4800680D4C25
:10157000B0FBF4F000EB80004000009002E0009827
:10158000401E009000980028F9D100BF002082F88A
:101590003C0000BF00BF4BE700230140002001409A
:1015A0000000002040420F00704770477047000065
:1015B00070B5044600250CB9012070BD1549A06A1C
:1015C000884200D000BF206C30B9204600F024F8DB
:1015D0000020606484F83C00206C00F0100088B9A2
:1015E000206C20F4885040F0020020642046FFF771
:1015F00019FA00206064206C20F0020040F0010025
:10160000206400E0012500BF002084F83C0000BFFA
:101610002846D2E70100000F10B586B00446142119
:1016200001A8FEF719FE36492068884265D100BF3F
:10163000002000903348006840F480703149086011
:101640000846006800F48070009000BF00BF00BF33
:10165000002000902B481438006840F0040029490D
:10166000143908600846006800F00400009000BFCC
:1016700000BF00BF002000900846006840F0010055
:1016800008600846006800F00100009000BF00BF3D
:101690000F200190032002900020039001A91A4816
:1016A00000F0DCF90C200190032002900020039050
:1016B00001A9164800F0D2F9154816490860002023
:1016C0004860002113488160C1604FF4806101616E
:1016D00049004161890081614911C16100210162B4
:1016E000416200F0FBF818B142210BA004F07AFB34
:1016F00000BF0848A063846300BF06B010BD0000AF
:10170000002001404438024000080240000002402E
:1017100010640240D00700202E2E2F4253502F7409
:10172000656D705F707265735F6472762E63000022
:10173000F8B504460D4616460020009000BF94F808
:101740003C00012801D10220F8BD012084F83C00B2
:1017500000BF2068806800F00100A0B920688068A0
:1017600040F0010021688860494800684949B0FBA1
:10177000F1F000EB4000009002E00098401E009065
:1017800000980028F9D12068806800F00100002846
:101790007CD0206C40F20161884340F4807020646A
:1017A0002068406800F4806028B1206C20F400506C
:1017B00040F480502064206C00F48050B0F5805FCD
:1017C00004D1606C20F00600606401E000206064D9
:1017D00000BF002084F83C0000BF2F4F2F48A16BB2
:1017E000C8632F48A16B08642E48A16BC8646FF0D2
:1017F0002200216808602068406840F0806021680D
:1018000048602068806840F48070216888602268A1
:1018100002F14C0133462A46A06B00F0D5F87868F7
:1018200000F01F0018BB20492068884213D01F49D0
:101830002068884204D1381D006800F01F0050B1B4
:101840001B492068884221D11348001D006800F020
:101850001F0010281AD22068806800F0405028B974
:101860002068806840F08040216888600EE00E4962
:10187000206888420AD12068806800F0405028B96A
:101880002068806840F080402168886000205BE725
:101890000000002040420F00002301407F090008A3
:1018A000170A0008FD09000800200140002101403E
:1018B00000220140014691F83500022803D0802023
:1018C000486501207047052081F8350008680068E8
:1018D00020F001000A6810600020F3E72DE9F041D4
:1018E0000446002500F0C8F9074614B90120BDE8F8
:1018F000F081606A00B100BF00BF002084F83400AE
:1019000000BF022084F835002068006820F0010044
:10191000216808600AE000F0AFF9C01B052805D96E
:1019200020206065032084F83500E0E72068006827
:1019300000F001000028EED120680568214805402C
:10194000D4E901010843E16808432169084361695A
:101950000843A1690843E1690843216A0843054334
:10196000606A042803D1D4E90B01084305432068C9
:1019700005602068456925F00705606A0543606ACF
:1019800004280DD1A06A0543E06A48B12046FFF75C
:1019900037FA28B140206065012084F83500A6E7B9
:1019A000206845612046FFF711FA064694F85C105E
:1019B0003F208840B06000206065012084F8350039
:1019C000002094E73F8010F02DE9F04704460D46D3
:1019D00016461F464FF00008D4F8589000BF94F800
:1019E0003400012802D10220BDE8F087012084F8EC
:1019F000340000BF94F83500012825D1022084F876
:101A00003500002060653B46324629462046FFF7F8
:101A10004CFA94F85C103F208840C9F80800206810
:101A2000006840F0160021680860206C28B120682A
:101A3000006840F00800216808602068006840F0F5
:101A400001002168086006E000BF002084F834002F
:101A500000BF4FF002084046C6E70000F8B5024656
:101A60000B460025002400200021DCE0012606FAB8
:101A700001F51E6806EA0504AC4273D15E68012ECA
:101A800008D05E68022E05D05E68112E02D05E6816
:101A9000122E13D190684F000326BE40B0434F0072
:101AA000DE68BE4030439060506801268E40B043EF
:101AB0001E79C6F300168E4030435060D0684F0048
:101AC0000326BE40B0434F009E68BE403043D06006
:101AD0005E68022E02D05E68122E13D1CF0802F18A
:101AE000200656F827004E07F70E0F26BE40B043DB
:101AF0004F07FF0E1E69BE403043CF0802F120069B
:101B000046F8270010684F000326BE40B0431E79F8
:101B100006F003064F00BE40304310605E6806F0DA
:101B20008056B6F1805F7DD100BF00260096404E02
:101B3000366846F480463E4F3E603E46366806F4C0
:101B40008046009600BF00BF3A4E8F0856F8270027
:101B50008E07370F0F26BE40B043374EB24202D138
:101B6000002624E05EE0354EB24201D101261EE09F
:101B7000334EB24201D1022619E0324EB24201D1B7
:101B8000032614E0304EB24201D104260FE02F4E5E
:101B9000B24201D105260AE02D4EB24201D10626FD
:101BA00005E02C4EB24201D1072600E008268F073F
:101BB0003F0FBE4030431F4E8F0846F82700264E89
:101BC0003068A0435E6806F48036B6F5803F00D1E9
:101BD0002043214E3060361D3068A0435E6806F415
:101BE0000036B6F5003F00D120431B4E361D306055
:101BF000361D3068A0435E6806F48016B6F5801F77
:101C000000D12043144E08363060361D3068A043A2
:101C10005E6806F40016B6F5001F00D120430E4E94
:101C20000C363060491C1029FFF420AFF8BD0000CD
:101C300044380240083801400000024000040240DD
:101C400000080240000C0240001002400014024054
:101C500000180240001C0240003C0140024613698B
:101C60000B400BB1012000E0002070470AB18161F8
:101C700001E00B0483617047014800687047000071
:101C8000040000201C4800681C49097808441A49CF
:101C90000860084601681A4800680A30814205D386
:101CA00018480078012801D11749087012480168C6
:101CB000164800680A30814205D31548007801288B
:101CC00001D1144908700C480168134800680A30B3
:101CD000814205D311480078012801D110490870CC
:101CE000054800686421B0FBF1F201FB120010B955
:101CF00001200C4908707047040000200C000020EF
:101D0000480500204D0500204C050020400500201E
:101D10004505002044050020500500205505002001
:101D2000540500200D00002010B50A48006840F45A
:101D30000070084908600846006840F48060086048
:101D4000032000F0A1F80F2000F006F800F02AF8B8
:101D5000002010BD003C024070B504460E480078DB
:101D60004FF47A71B1FBF0F00C490968B1FBF0F562
:101D7000284601F082F808B1012070BD102C07D26E
:101D800000222146501E00F041F80548046001E0A1
:101D90000120F2E70020F0E70C0000200000002006
:101DA0000800002008B500BF002000900E48006821
:101DB00040F480400C4908600846006800F4804008
:101DC000009000BF00BF00BF00200090081F006807
:101DD00040F08050091F08600846006800F08050FD
:101DE000009000BF00BF08BD4438024001460846CD
:101DF000002809DB00F01F0301229A4043099B00E1
:101E000003F1E023C3F8002100BF70472DE9F05F24
:101E100080460D461646002704F010F8074639465E
:101E20002A46334601F00700C0F1070ABAF1040F51
:101E300002D94FF0040A01E0C0F1070AD14600F1CF
:101E4000040ABAF1070F02D24FF0000A01E0A0F134
:101E5000030AD4464FF0010A0AFA09FAAAF1010A64
:101E60000AEA020A0AFA0CFA4FF0010B0BFA0CFB11
:101E7000ABF1010B0BEA030B4AEA0B042146404687
:101E800003F0E4FFBDE8F09F00BF00F00702064B3F
:101E900019684FF6FF031940044B0B4343EA022134
:101EA000014B196000BF70470CED00E00000FA051F
:101EB00070B504460D460CB9012070BD5848006845
:101EC00000F00F00A84209D255490D70084600687D
:101ED00000F00F00A84201D00120EEE7207800F0CA
:101EE000020002281DD1207800F00400042805D14A
:101EF0004C48006840F4E0504A490860207800F0FF
:101F00000800082805D14748006840F4604045496A
:101F100008604448006820F0F000A1680843414987
:101F20000860207800F00100A8B36068012807D19C
:101F30003C4808380068C0F34040B8B90120BCE70D
:101F40006068022802D06068032807D13548083845
:101F50000068C0F3406048B90120AEE73148083856
:101F60000068C0F3400008B90120A6E72D480068CA
:101F700020F00300616808432A490860FFF77CFEEF
:101F8000064609E0FFF778FE801B41F2883188425F
:101F900002D9032091E707E02248006800F00C0016
:101FA0006168B0EB810FEDD11D48006800F00F00B3
:101FB000A84209D91A490D700846006800F00F00C0
:101FC000A84201D0012078E7207800F0040004281E
:101FD00007D11448006820F4E050E1680843114933
:101FE0000860207800F00800082808D10D48006833
:101FF00020F46040216940EAC1000A49086000F00D
:102000003FF808490968C1F30311074A515CC84009
:102010000649086006480068FFF79EFE00204CE76E
:10202000003C0240083802402886000800000020DA
:1020300008000020014800687047000000000020F0
:1020400000B5FFF7F7FF04490968C1F38221034A8D
:10205000515CC84000BD00000838024038860008C6
:1020600000B5FFF7E7FF04490968C1F34231034AAD
:10207000515CC84000BD00000838024038860008A6
:102080002DE9F047002400250026A14625480068D8
:1020900000F00C0020B1042805D008283AD105E052
:1020A000DFF8849039E0DFF8849036E01D48001FA7
:1020B000006800F03F041B48001F006800F4800027
:1020C00078B11A481749091F0968C1F38811A0FBA4
:1020D00001700146224600233846FEF773F8054694
:1020E0000EE011480F49091F0968C1F38811A0FBD0
:1020F00001700146224600233846FEF763F8054684
:102100000848001F0068C0F30140401C4600B5FBB2
:10211000F6F902E0DFF8109000BF00BF4846BDE8C6
:10212000F0870000083802400024F40000127A0012
:10213000F8B504460CB90120F8BD207800F0010084
:10214000002874D0F948006800F00C0004280DD075
:10215000F648006800F00C00082813D1F348001F6F
:10216000006800F48000B0F5800F0BD1EF4808380C
:102170000068C0F34040002859D06068002856D15C
:102180000120D9E700BF6068B0F5803F08D1E7487B
:102190000838006840F48030E449083908601EE0DF
:1021A0006068B0F5A02F0DD1E0480838006840F411
:1021B0008020DE49083908600846006840F4803015
:1021C00008600CE0D9480838006820F48030D7490E
:1021D000083908600846006820F48020086000BFC5
:1021E000606890B1FFF748FD054606E0FFF744FD43
:1021F000401B642801D903209EE7CC4808380068BA
:10220000C0F340400028F1D011E0FFF735FD05464E
:1022100006E0FFF731FD401B642801D903208BE75E
:10222000C24808380068C0F340400028F1D1207847
:1022300000F0020002285FD1BC48006800F00C00EA
:1022400058B1BA48006800F00C0008281CD1B74803
:10225000001F006800F48000B0B9B4480838006876
:10226000C0F3400020B1E068012801D0012063E7FD
:10227000AE480838006820F0F800216940EAC10043
:10228000AA490839086037E0E06800B30120A8498E
:102290000860FFF7F1FC054606E0FFF7EDFC401B88
:1022A000022801D9032047E7A04808380068C0F396
:1022B00040000028F1D09D480838006820F0F80060
:1022C000216940EAC10099490839086014E00020FA
:1022D00097490860FFF7D0FC054606E0FFF7CCFC05
:1022E000401B022801D9032026E7904808380068DF
:1022F000C0F340000028F1D1207800F00800082841
:102300002CD16069A8B101208A490860FFF7B4FCAC
:10231000054606E0FFF7B0FC401B022801D9032068
:102320000AE782486C300068C0F340000028F1D012
:1023300014E000207F490860FFF79EFC054606E098
:10234000FFF79AFC401B022801D90320F4E67748E6
:102350006C300068C0F340000028F1D1207800F014
:102360000400042870D1002770483830006800F05D
:10237000805090B900BF002000906C483830006851
:1023800040F080506949383108600846006800F024
:102390008050009000BF00BF01276748006800F42C
:1023A0008070B0B96448006840F480706249086089
:1023B000FFF762FC054606E0FFF75EFC401B0228C3
:1023C00001D90320B8E65C48006800F4807000285A
:1023D000F2D000BFA068012808D1544868300068D6
:1023E00040F001005149683108601DE0A0680528EF
:1023F0000DD14E486830006840F004004B49683108
:1024000008600846006840F0010008600CE047489A
:102410006830006820F001004449683108600846CF
:10242000006820F00400086000BFA068A8B1FFF7B2
:1024300023FC054609E0FFF71FFC401B41F28831F1
:10244000884202D9032077E626E0384868300068E1
:10245000C0F340000028EED013E0FFF70DFC054666
:1024600008E0FFF709FC401B41F28831884201D99E
:10247000032061E62D4868300068C0F34000002862
:10248000EFD1012F07D129483830006820F0805063
:1024900026493831086000BFA069002845D023488C
:1024A000006800F00C0008285DD0A069022845D122
:1024B00000201F490866FFF7DFFB054606E0FFF72F
:1024C000DBFB401B022801D9032035E617480838FA
:1024D0000068C0F340600028F1D1D4E90701084347
:1024E000616A40EA81110122A06AC2EB500041EA10
:1024F00000412C20005D41EA00600C49091F086082
:1025000001200B490866FFF7B7FB054606E0FFF719
:10251000B3FB401B022801D903200DE6034808380D
:102520000068C0F340600028F1D03FE00838024066
:1025300000004742800E47420070004000201C49C6
:102540000866FFF799FB054606E0FFF795FB401B81
:10255000022801D90320EFE516480068C0F3406067
:102560000028F2D122E0A069012800D1E4E5114859
:10257000001D066806F48001E069814214D106F06E
:102580003F01206A81420FD147F6C0703040616A36
:10259000884209D106F44031A06A814204D106F094
:1025A0007061E06A814201D00120C5E50020C3E5E9
:1025B000000047420038024010B504460CB9012023
:1025C00010BD606A00B900BFA06AB0F5005F00D11D
:1025D00000BF94F8510028B9002084F8500020462C
:1025E00000F03AF8022084F851002068006820F0DA
:1025F000400021680860D4E901010843E16808430C
:102600002169084361690843218B01F40071084383
:10261000E1690843216A0843A16A08432168086008
:102620000421A06901EA1040616A084321684860FA
:10263000A06AB0F5005F02D12168E06A08612068F5
:10264000C06920F400602168C86100206065012035
:1026500084F851000020B3E710B586B00446142179
:1026600001A8FDF7F9FD52492068884230D100BF2A
:10267000002000904F48006840F480504D490860A9
:102680000846006800F48050009000BF00BF00BF03
:102690000020009047481438006840F00100454988
:1026A000143908600846006800F00100009000BF7F
:1026B00000BFE02001900220029000200390032040
:1026C00004900520059001A93B48FFF7C7F96DE08C
:1026D0003A492068884233D100BF00200090354835
:1026E000001F006840F480403249091F0860084616
:1026F000006800F48040009000BF00BF00BF0020D1
:1027000000902C481438006840F002002949143920
:1027100008600846006800F00200009000BF00BF9B
:102720004FF46040019002200290002003900320AB
:1027300004900520059001A92148FFF78FF935E0A5
:1027400020492068884231D100BF002000901948FC
:10275000001F006840F400401649091F0860084641
:10276000006800F40040009000BF00BF00BF0020E0
:10277000009010481438006840F002000D491439E8
:1027800008600846006800F00200009000BF00BF2B
:102790003820019002200290002003900320049032
:1027A0000620059001A90648FFF758F906B010BDAC
:1027B0000030014044380240000002400038004030
:1027C00000040240003C00402DE9F84304468846DE
:1027D00017461D464FF000096068B0F5827F0DD1A5
:1027E000A06858B9042084F851003B46424641464F
:1027F0002046009500F0DDF9BDE8F88300BF94F8AD
:102800005000012801D10220F6E7012084F8500091
:1028100000BFFFF731FA064694F85100012802D0B4
:102820004FF00209CEE0B8F1000F00D017B94FF019
:102830000109C7E0042084F8510000206065C4F855
:102840003880A787E7872063A086E08620646064DD
:10285000A06AB0F5005F10D100BF2068006820F4C6
:102860000050216808602068006840F4005021682A
:10287000086000BFE08F401EE087A068B0F5004F01
:1028800005D12068006820F4804021680860206835
:10289000006800F04000402805D02068006840F043
:1028A000400021680860E068F8B91AE02068806894
:1028B00000F0010050B12068007BA16B0870A06B94
:1028C000401CA063E08F401EE0870AE0FFF7D4F9C8
:1028D000801BA84201D3681C00B915B94FF0030949
:1028E00070E0E08F0028E1D11EE01AE020688068E7
:1028F00000F0010050B12068C068A16B0880A06B97
:10290000801CA063E08F401EE0870AE0FFF7B4F967
:10291000801BA84201D3681C00B915B94FF0030908
:1029200050E0E08F0028E1D1A06AB0F5005F2ED121
:102930002068006840F48050216808602B4601221E
:1029400011462046009602F08DF810B14FF00309B1
:1029500038E0E068B0F5006F04D12068C068A16B72
:10296000088003E02068007BA16B08702B460122E1
:1029700011462046009602F075F830B1606D40F0C7
:10298000020060654FF003091CE02068C068324611
:102990002946204601F0A2FE08B12020606520688B
:1029A000806800F01000102807D1606D40F0020030
:1029B00060654FF6EF7021688860606D08B14FF078
:1029C000010900BF012084F8510000BF002084F8F5
:1029D000500000BF48460FE72DE9F84F04468846EF
:1029E00016461D464FF0000A00BF94F8500001281B
:1029F00002D10220BDE8F88F012084F8500000BF0A
:102A0000FFF73AF90746B14694F85100012802D081
:102A10004FF0020AC3E0B8F1000F00D016B94FF032
:102A2000010ABCE0032084F8510000206065C4F86E
:102A30003080A686E686A063A087E0876064206475
:102A4000A068B0F5004F05D12068006840F48040D0
:102A500021680860A06AB0F5005F0DD100BF206852
:102A6000006820F40050216808602068006840F485
:102A700000502168086000BF2068006800F0400036
:102A8000402805D02068006840F0400021680860B8
:102A9000E068B0F5006F2FD1606810B1B9F1010F97
:102AA00009D1206B00882168C860206B801C2063DE
:102AB000E08E401EE0861BE02068806800F0020087
:102AC00002280AD1206B00882168C860206B801C16
:102AD0002063E08E401EE0860AE0FFF7CDF8C01BC1
:102AE000A84201D3681C00B915B94FF0030A56E09B
:102AF000E08E0028E0D12EE0606810B1B9F1010F3E
:102B000009D1206B007821680873206B401C20637A
:102B1000E08E401EE0861BE02068806800F0020026
:102B200002280AD1206B007821680873206B401CB2
:102B30002063E08E401EE0860AE0FFF79DF8C01B90
:102B4000A84201D3681C00B915B94FF0030A26E06A
:102B5000E08E0028E0D1A06AB0F5005F05D12068C2
:102B6000006840F48050216808603A4629462046B3
:102B700001F0FEFD08B120206065A06850B900BFDB
:102B8000002000902068C068009020688068009055
:102B900000BF00BF606D08B14FF0010A00BF012007
:102BA00084F8510000BF002084F8500000BF504658
:102BB00020E72DE9FF5F0446884691461D460E9E9C
:102BC000012002900020019000BF94F850000128DD
:102BD00003D1022004B0BDE8F09F012084F850002A
:102BE00000BFFFF749F8074694F851B060680390BA
:102BF000AA46BBF1010F0BD00398B0F5827F04D138
:102C0000A06810B9BBF1040F02D0022001902AE1A4
:102C1000B8F1000F03D0B9F1000F00D015B90120B1
:102C2000019020E194F85100042802D0052084F896
:102C3000510000206065C4F83890E587A587C4F886
:102C40003080E586A58620646064A06AB0F5005FE8
:102C50000DD100BF2068006820F400502168086092
:102C60002068006840F400502168086000BF2068B8
:102C7000006800F04000402805D02068006840F05F
:102C8000400021680860E068B0F5006F56D16068C8
:102C900010B1BAF1010F09D1206B00882168C8601A
:102CA000206B801C2063E08E401EE0863FE02068A1
:102CB000806800F0020002281CD1E08ED0B102989A
:102CC000012817D1206B00882168C860206B801C08
:102CD0002063E08E401EE08600200290E08E48B91E
:102CE000A06AB0F5005F05D12068006840F480500C
:102CF000216808602068806800F0010068B1E08FFA
:102D000058B12068C068A16B0880A06B801CA063CC
:102D1000E08F401EE08701200290FEF7ADFFC01B50
:102D2000B04204D3701C10B1032001909BE0E08EF0
:102D30000028BCD1E08F0028B9D156E0606810B1FE
:102D4000BAF1010F09D1206B007821680873206B5C
:102D5000401C2063E08E401EE08640E020688068D2
:102D600000F0020002281CD1E08ED0B102980128A8
:102D700017D1206B007821680873206B401C2063FA
:102D8000E08E401EE08600200290E08E48B9A06AE6
:102D9000B0F5005F05D12068006840F480502168DC
:102DA00008602068806800F0010068B1E08F58B1C9
:102DB0002068C068A16B0870A06B401CA063E08F06
:102DC000401EE08701200290FEF756FFC01BB04274
:102DD00001D3701C00B916B90320019043E0E08EC6
:102DE0000028BBD1E08F0028B8D1A06AB0F5005F01
:102DF00010D13346012211462046009701F032FEE1
:102E000030B1606D40F002006065032001902AE05F
:102E10002068C0682068806800F01000102809D180
:102E2000606D40F0020060654FF6EF7021688860C9
:102E3000012001903A463146204601F099FC20B12C
:102E400001200190202060650DE0A06850B900BF0E
:102E5000002000902068C068009020688068009082
:102E600000BF00BF00BF012084F8510000BF002058
:102E700084F8500000BF0198ACE670B504462546C2
:102E8000681EB0F1807F01D301200FE0681E4FF073
:102E9000E02148610F214FF0FF3002F0D7FF002002
:102EA0004FF0E021886107200861002070BD70B5F7
:102EB00004460D46164600BF94F83C00012801D197
:102EC000022070BD012084F83C0000BF022084F87D
:102ED0003D0036B1042E1BD0082E31D00C2E5ED111
:102EE00045E02946206801F0FDFF2068806940F038
:102EF0000800216888612068806920F0040021684A
:102F0000886120688069296908432168886147E0F1
:102F10002946206802F01EF82068806940F40060AD
:102F2000216888612068806920F480602168886158
:102F300020688069296940EA0120216888612FE0C2
:102F40002946206802F044F82068C06940F0080073
:102F50002168C8612068C06920F004002168C86148
:102F60002068C069296908432168C86118E02946BA
:102F7000206802F069F82068C06940F400602168A8
:102F8000C8612068C06920F480602168C861206839
:102F9000C069296940EA01202168C86100E000BFDA
:102FA00000BF012084F83D0000BF002084F83C00F1
:102FB00000BF00BF85E710B504460CB9012010BD65
:102FC00094F83D0028B9002084F83C00204600F029
:102FD0000CF8022084F83D00211D206801F004FF58
:102FE000012084F83D000020E9E7704770B50446F1
:102FF0000E4601223146206801F062FF0F49206829
:10300000884203D00E492068884201D1012000E0A7
:10301000002028B12068406C40F4004021684864DA
:103020002068806800F00705062D05D0206800683C
:1030300040F0010021680860002070BD00000140E0
:1030400000040140704700002DE9F0470446206865
:1030500005682068C668206847694FF00008C146C7
:1030600005F00F08B8F1000F0AD105F0200038B1C3
:1030700006F0200020B1204602F01AFABDE8F087E1
:10308000B8F1000F72D007F0010018B906F4907083
:1030900000286BD005F0010030B106F4807018B143
:1030A000E06B40F00100E06305F0040030B107F090
:1030B000010018B1E06B40F00200E06305F002008F
:1030C00030B107F0010018B1E06B40F00400E0639C
:1030D00005F0080048B106F0200010B907F0010023
:1030E00018B1E06B40F00800E063E06B70B305F0EE
:1030F000200028B106F0200010B1204602F0D8F9D7
:1031000020684069C0F38019E06B00F0080010B936
:10311000B9F1000F23D0204602F0AAF920684069D7
:1031200000F04000402816D12068406920F040009F
:1031300021684861606B50B11748616B0865606B2E
:10314000FEF7B8FB10B1606B016D88470CE02046BC
:10315000FFF778FF08E02046FFF774FF04E0204601
:10316000FFF770FF0020E06388E7FFE705F08000CD
:1031700030B106F0800018B1204602F0E1FB7DE797
:1031800005F0400030B106F0400018B1204602F0D2
:103190007FF973E700BF71E75D54000810B504467E
:1031A0000CB9012010BDA06900B100E000BF94F887
:1031B000390028B9002084F83800204600F028F8AB
:1031C000242084F839002068C06820F40050216869
:1031D000C860204602F0C0F92068006920F49040E1
:1031E000216808612068406920F02A002168486150
:1031F0002068C06840F400502168C8600020E06387
:10320000202084F8390084F83A000020CAE7000042
:1032100010B586B00446142101A8FDF71DF88649B3
:103220002068884248D100BF002000908348006891
:1032300040F01000814908600846006800F0100066
:10324000009000BF00BF00BF002000907B481438F2
:10325000006840F0010079491439086008460068A8
:1032600000F00100009000BF00BF00BF00200090F0
:103270000846006840F0010008600846006800F059
:103280000100009000BF00BF4FF4C0600190022019
:10329000029000200390032004900720059001A9CC
:1032A0006748FEF7DBFB002204212520FEF7AEFD78
:1032B0002520FEF79BFDBCE062492068884249D189
:1032C00000BF002000905D48001F006840F40030FF
:1032D0005A49091F08600846006800F40030009051
:1032E00000BF00BF00BF00200090544814380068A1
:1032F00040F008005149143908600846006800F0A1
:103300000800009000BF00BF00BF002000900846EA
:10331000006840F0080008600846006800F00800F7
:10332000009000BF00BF60200190022002900020AA
:103330000390032004900720059001A94248FEF75E
:103340008DFB002204212620FEF760FD2620FEF7DB
:103350004DFD6EE03D49206888426AD100BF0020E3
:1033600000903648001F006840F480203349091F50
:1033700008600846006800F48020009000BF00BF8D
:1033800000BF002000902D481438006840F008006D
:103390002A49143908600846006800F008000090C7
:1033A00000BF00BF00BF002000900846006840F04A
:1033B000080008600846006800F00800009000BFA0
:1033C00000BF00BF002000900846006840F00800E1
:1033D00008600846006800F00800009000BF00BFC9
:1033E0000815019001200290002003900320049012
:1033F00001A91548FEF732FB00224FF48061124804
:10340000FEF734FC4FF4407001900220029000203F
:103410000390032004900720059001A90A48FEF7B5
:103420001DFB002204212720FEF7F0FC2720FEF7D9
:10343000DDFC06B010BD0000001001404438024021
:103440000000024000440040000C024000480040E0
:103450002DE9F84304460D4616461F464FF0000975
:1034600094F83A00202861D105B116B90120BDE8D1
:10347000F88300BF94F83800012801D10220F6E754
:10348000012084F8380000BF0020E063222084F887
:103490003A00FEF7F1FB8146A685E68500BF0020D5
:1034A00084F8380000BF39E0E08D401EE085A06858
:1034B000B0F5805F1BD14B460022202120460097AB
:1034C00002F072FA08B10320D1E7A846206938B9A2
:1034D00020684068C0F30800A8F80000AD1C1DE09B
:1034E00020684068C0B2A8F800006D1C16E04B468A
:1034F000002220212046009702F056FA08B103204E
:10350000B5E7206920B92068406805F8010B05E09F
:103510002068406800F07F0005F8010BE08D00286E
:10352000C2D1202084F83A000020A0E702209EE7C4
:1035300070472DE9F84304460D4616461F464FF0E6
:10354000000994F8390020285DD105B116B9012091
:10355000BDE8F88300BF94F83800012801D10220AB
:10356000F6E7012084F8380000BF0020E063212046
:1035700084F83900FEF780FB8146A684E68400BF0C
:10358000002084F8380000BF2BE0E08C401EE0846F
:10359000A068B0F5805F16D14B46002280212046FE
:1035A000009702F001FA08B10320D1E7A846B8F865
:1035B0000000C0F3080021684860206908B9AD1C0C
:1035C0000FE06D1C0DE04B46002280212046009745
:1035D00002F0EAF908B10320BAE715F8010B2168F7
:1035E0004860E08C0028D0D14B4600224021204684
:1035F000009702F0D9F908B10320A9E7202084F848
:1036000039000020A4E70220A2E770472DE9F84323
:10361000002777497748FDF78BFE0746002F01DC2E
:10362000BDE8F883724884780CB1C12C00DDF7E75F
:103630006F48407895285DD1E01D874200D0EFE7C4
:10364000FDF732FB00B9EBE7694800796849CD78AE
:1036500060F31F2508460078412806D0422813D081
:10366000452820D046283CD12CE0204604EBD071E0
:103670004910A4EB410131B95F49481922465C4920
:10368000491DFCF7D0FD2CE0E11704EB9171891086
:10369000A4EB810131B95949481922465449491DC1
:1036A000FCF7C1FD1DE0204604EBD0714910A4EBEE
:1036B000410131B95249481922464D49491DFCF78B
:1036C000B2FD0EE0E11704EB91718910A4EB8101CA
:1036D00031B94C49481922464549491DFCF7A3FD1B
:1036E00000BF00BF00F09EFEE01DC1B2404802F0E6
:1036F00011FA7BE03E484078942877D13C48007826
:103700004149087094204870084684703848007910
:103710003749CD7860F31F250846C0783A49C8700C
:1037200033480079087132480078412806D0422891
:1037300013D0452820D046283CD12CE0204604EB6D
:10374000D0714910A4EB410131B92B4841192246EF
:103750002D48401DFCF767FD2DE0E11704EB91714A
:103760008910A4EB810131B9244841192246264829
:10377000401DFCF758FD1EE0204604EBD0714910B7
:10378000A4EB410131B91E48411922461E48401D93
:10379000FCF749FD0FE0E11704EB91718910A4EBF0
:1037A000810131B91748411922461748401DFCF7DD
:1037B0003AFD00E034E700BF4AF6552000906A4623
:1037C000A11C1148C01CFDF7EBFA064606F0FF08E5
:1037D0004FEA1629601D0C4901F80080A01D01F870
:1037E0000090E01DC1B2084802F094F900BF17E74D
:1037F000A80D0020C80C0020A8110020A81200204D
:10380000A8130020A8140020700E00202DE9F84312
:10381000002777497748FDF78BFD0746002F01DC2D
:10382000BDE8F883724884780CB1C12C00DDF7E75D
:103830006F48407895285DD1E01D874200D0EFE7C2
:10384000FDF732FA00B9EBE7694800796849CD78AD
:1038500060F31F2508460078412806D0422813D07F
:10386000452820D046283CD12CE0204604EBD071DE
:103870004910A4EB410131B95F49481922465C491E
:10388000491DFCF7D0FC2CE0E11704EB9171891085
:10389000A4EB810131B95949481922465449491DBF
:1038A000FCF7C1FC1DE0204604EBD0714910A4EBED
:1038B000410131B95249481922464D49491DFCF789
:1038C000B2FC0EE0E11704EB91718910A4EB8101C9
:1038D00031B94C49481922464549491DFCF7A3FC1A
:1038E00000BF00BF00F09EFDE01DC1B2404802F0E5
:1038F0001FF97BE03E484078942877D13C48007817
:10390000414908709420487008468470384800790E
:103910003749CD7860F31F250846C0783A49C8700A
:1039200033480079087132480078412806D042288F
:1039300013D0452820D046283CD12CE0204604EB6B
:10394000D0714910A4EB410131B92B4841192246ED
:103950002D48401DFCF767FC2DE0E11704EB917149
:103960008910A4EB810131B9244841192246264827
:10397000401DFCF758FC1EE0204604EBD0714910B6
:10398000A4EB410131B91E48411922461E48401D91
:10399000FCF749FC0FE0E11704EB91718910A4EBEF
:1039A000810131B91748411922461748401DFCF7DB
:1039B0003AFC00E034E700BF4AF6552000906A4622
:1039C000A11C1148C01CFDF7EBF9064606F0FF08E4
:1039D0004FEA1629601D0C4901F80080A01D01F86E
:1039E0000090E01DC1B2084802F0A2F800BF17E73E
:1039F000380B0020580A0020A8110020A81200202F
:103A0000A8130020A8140020000C00202DE9F84382
:103A1000002777497748FDF78BFC0746002F01DC2C
:103A2000BDE8F883724884780CB1C12C00DDF7E75B
:103A30006F48407895285DD1E01D874200D0EFE7C0
:103A4000FDF732F900B9EBE7694800796849CD78AC
:103A500060F31F2508460078412806D0422813D07D
:103A6000452820D046283CD12CE0204604EBD071DC
:103A70004910A4EB410131B95F49481922465C491C
:103A8000491DFCF7D0FB2CE0E11704EB9171891084
:103A9000A4EB810131B95949481922465449491DBD
:103AA000FCF7C1FB1DE0204604EBD0714910A4EBEC
:103AB000410131B95249481922464D49491DFCF787
:103AC000B2FB0EE0E11704EB91718910A4EB8101C8
:103AD00031B94C49481922464549491DFCF7A3FB19
:103AE00000BF00BF00F09EFCE01DC1B2404802F0E4
:103AF0002DF87BE03E484078942877D13C48007808
:103B0000414908709420487008468470384800790C
:103B10003749CD7860F31F250846C0783A49C87008
:103B200033480079087132480078412806D042288D
:103B300013D0452820D046283CD12CE0204604EB69
:103B4000D0714910A4EB410131B92B4841192246EB
:103B50002D48401DFCF767FB2DE0E11704EB917148
:103B60008910A4EB810131B9244841192246264825
:103B7000401DFCF758FB1EE0204604EBD0714910B5
:103B8000A4EB410131B91E48411922461E48401D8F
:103B9000FCF749FB0FE0E11704EB91718910A4EBEE
:103BA000810131B91748411922461748401DFCF7D9
:103BB0003AFB00E034E700BF4AF6552000906A4621
:103BC000A11C1148C01CFDF7EBF8064606F0FF08E3
:103BD0004FEA1629601D0C4901F80080A01D01F86C
:103BE0000090E01DC1B2084801F0B0FF00BF17E728
:103BF00018100020380F0020A8110020A812002063
:103C0000A8130020A8140020E010002000BFFEE749
:103C10000346012018701A81D9600020704710B542
:103C2000044621600020E0606060A0602261636162
:103C300010BD000010B5002400BF0EE0C4EB04125C
:103C4000074B03EB420104EB8402064B03EB8200BB
:103C50000F22FFF7DDFF601CC4B2062CEEDB10BDA7
:103C60006C080020200900204FF4FA701049096800
:103C700008604FF4C8700E49096848604FF49670A8
:103C80000B49096888600A490968C86064200849C6
:103C90000968086100200649096848616FF06300FF
:103CA000034909688861400001490968C861704793
:103CB0007005002000B587B000BF002001900D48BE
:103CC000006840F010000B4908600846006800F0EA
:103CD0001000019000BF00BF4FF40040029001208F
:103CE000039004900320059002A90348FDF7B6FE57
:103CF00007B000BD30380240001002402DE9F0410D
:103D000090F9007090F901C0418844680589028AE1
:103D1000D0F80C80B8F1000F01D1BDE8F08117B9DF
:103D2000BCF1000F15D00027BC46002307E0D0F8F7
:103D30000C8028F8131003F101081FFA88F3AB4236
:103D4000F5DB01FB05F400220E46077080F801C088
:103D500018E0D0F80C8038F81280A4EB08040C446A
:103D6000D0F80C8028F8121002F101081FFA88F22E
:103D700092FBF5F805FB18281FFA88F2B4FBF5F85A
:103D80001FFA88F644600282468200BFC5E7000041
:103D90001FB5002000900190029003903E483F49DB
:103DA00008604FF48030486000213C488160012168
:103DB00001610176002180F82010C16238498162DA
:103DC0000021C1600621C161012180F8301000216D
:103DD0004161FDF7EDFB18B1A52132A002F002F818
:103DE0000A200090012001900020029069462B4893
:103DF000FDF714FB18B1AF212AA001F0F3FF0B204F
:103E00000090022001900020029069462348FDF7AF
:103E100005FB18B1B92123A001F0E4FF0C200090AC
:103E2000032001900020029069461C48FDF7F6FA35
:103E300018B1C3211BA001F0D5FF0D200090042074
:103E400001900020029069461448FDF7E7FA18B186
:103E5000CD2114A001F0C6FF0220009005200190A2
:103E60000020029069460D48FDF7D8FA18B1D72115
:103E70000CA001F0B7FF0320009006200190002065
:103E8000029069460548FDF7C9FA18B1E12105A07D
:103E900001F0A8FF1FBD000000200140880700209E
:103EA0000100000F2E2E2F4253502F74656D705F4E
:103EB000707265735F6472762E63000008B500BF90
:103EC000002000900648006840F480000449086023
:103ED0000846006800F48000009000BF00BF08BDE5
:103EE0003038024010B50F480F4908604FF4827017
:103EF000486000210C488160C160016141614FF45C
:103F0000007181611021C161002101624162816201
:103F10000721C162FEF750FB18B13A2103A001F05E
:103F200053FF10BD00300140800600202E2E2F428E
:103F300053502F7370692E630000000010B50F48B6
:103F40000F4908604FF48270486000210C4881607E
:103F5000C160016101214161490281612821C16182
:103F600000210162416281620721C162FEF724FBE8
:103F700018B1612103A001F027FF10BD00380040F7
:103F8000D80600202E2E2F4253502F7370692E63B7
:103F90000000000010B50F480F4908604FF4827010
:103FA000486000210C488160C160016101214161CC
:103FB000490281612821C16100210162416281625F
:103FC0000721C162FEF7F8FA18B1872103A001F0BA
:103FD000FBFE10BD003C0040300700202E2E2F427B
:103FE00053502F7370692E630000000000BFFEE77E
:103FF000704738B5044623466A460121002000F088
:1040000075F89DF8000000F00F0000909DF800008A
:1040100040F0300000909DF8000040F00400009057
:1040200023466A460121002000F0BCF823466A4678
:104030000121084600F05AF89DF8000000F01F002A
:1040400000909DF8000040F0A400009023466A46CE
:104050000121084600F0A6F823466A460121022005
:1040600000F044F89DF8000000F0380000909DF842
:10407000000040F04600009023466A4601210220DD
:1040800000F090F823466A460121032000F02EF844
:104090009DF8000000F01F0000909DF8000040F027
:1040A0002000009023466A460121032000F07AF8A0
:1040B00038BD70B505461026284600F027F9304671
:1040C00000F050F800F036F8044600F033F840EA0B
:1040D000042400F02FF840EA042404F4000008B19E
:1040E00044F07F4400F050F9204670BD2DE9F047C0
:1040F00006460C4615461F46384600F007F92020B4
:1041000000EB8601601E084400F0FF09484600F0FD
:1041100029F84FF0000807E000F00CF805F8010B53
:1041200008F1010000F0FF08A045F5DB00F02CF9D4
:10413000BDE8F08708B5002000906A460021012004
:1041400004F016FA18B17C2102A001F021FE9DF8BE
:10415000000008BD2E2E2F4253502F5054313030C6
:104160002E63000001B500226946012004F000FA28
:1041700018B1722101A001F00BFE08BD2E2E2F42B6
:1041800053502F50543130302E63000070B5044628
:104190000625204600F0BAF82846FFF7E3FF00F0B6
:1041A000F3F870BD2DE9F04706460C4615461F464C
:1041B000384600F0ABF8402000EB8601601E084452
:1041C00000F0FF094846FFF7CDFF4FF0000807E079
:1041D00015F8010BFFF7C6FF08F1010000F0FF081A
:1041E000A045F5DB00F0D0F8BDE8F08700B587B05A
:1041F000142102A8FCF730F800BF002001902348EA
:10420000006840F00200214908600846006800F09C
:104210000200019000BF00BF00BF002001900846CF
:10422000006840F0040008600846006800F00400E0
:10423000019000BF00BF00BF002001900846006849
:1042400040F0080008600846006800F0080001908F
:1042500000BF00BF8814029001200390002004904A
:104260000320059002A90A48FDF7F8FB4FF480608F
:10427000029002A90748FDF7F1FB4FF4006002909D
:1042800002A90548FDF7EAFB07B000BD303802403F
:104290000004024000080240000C024010B52DED61
:1042A000028B04462046FFF704FF08EE100AB8EE22
:1042B000C80ADFED090A60EE200A9FED081A80EEB9
:1042C000810AF1EE000A80EE201AF0EE418AB0EE8B
:1042D000680ABDEC028B10BD0040C8440000004BD2
:1042E00010B5FFF783FF0020FFF750FF0020FFF716
:1042F00080FE0120FFF74AFF0120FFF77AFE02202F
:10430000FFF744FF0220FFF774FE10BD10B504460E
:1043100084B900224FF480511848FDF7A7FC012210
:1043200091021748FDF7A2FC0122D1021548FDF7C2
:104330009DFC22E0012C0FD1012211030F48FDF753
:1043400095FC0022A1020E48FDF790FC0122D1024B
:104350000C48FDF78BFC10E0022C0ED1012211035A
:104360000648FDF783FC012291020548FDF77EFC1B
:104370000022A1020348FDF779FC10BD00040240B1
:1043800000080240000C024010B50122110307484A
:10439000FDF76CFC012291020548FDF767FC012244
:1043A000D1020448FDF762FC10BD00000004024089
:1043B00000080240000C024010B500F06FFE00F053
:1043C000A7FE0448006800F03BFC0348006800F0CA
:1043D00093FC10BD340500203805002070472DE9FE
:1043E000F047044689466568A668D4F80C8063697E
:1043F000216805FB03101A464946FBF714FF2F46B8
:104400006D1C2069A84200D80025B74203DAB542E6
:1044100001DB08F101086560A660C4F80C8000208B
:10442000BDE8F08772B600200149087062B6704797
:104430003C05002070B52DED108BB0EE408A04468F
:104440009FED880AF0EE409A9FED870AB0EE40EAB1
:104450009FED860AF0EE40EA9FED850AB0EE40FA45
:104460009FED840AF0EE408A9FED830AB4EEC08A85
:10447000F1EE10FA06D39FED810AB4EEC08AF1EE98
:1044800010FA07DD9FED7B0A84ED000A0120BDECE8
:10449000108B70BD9FED730AB4EEC08AF1EE10FA76
:1044A00054DBDFED700A88EE200AF7EE000A70EEAA
:1044B000C00A9FED730A9FED731AB0EE409A01EEA9
:1044C000609AB5EEC09AF1EE10FA05D29FED690A36
:1044D00084ED000A0220DAE719EE100AFCF786F8EC
:1044E00041EC1D0BB0EE4D0AF0EE6D0A01F0CCFC74
:1044F000B0EE40CAF0EE60CA9FED630B53EC102B98
:1045000051EC1C0BFBF7B3FE41EC1B0B9FED600B5A
:1045100053EC102BFBF7C4FF41EC1A0BFCF7AAF885
:1045200008EE900AF5EEC08AF1EE10FA7EDB9FED00
:104530005A0AF4EEC08AF1EE10FA77D8B0EE080A03
:1045400038EEC00A84ED000A0020A0E79FED490A7A
:10455000B0EE40CAB7EE000AF0EE40CA00259FED6B
:104560004F0AB0EE40DA47E0DFED3F1AB7EE001A2F
:1045700001EE8C1ADFED3D1A6CEE211A01EE8C1A59
:10458000DFED381A7CEE611A9FED392A61EE821A4E
:1045900061EE8C1A61EE8C1A01EE8C1ADFED311A85
:1045A00021EE211AB0EE410AB0EE081A2CEE011AE3
:1045B00061EE0C1A9FED3A1A2CEE011A41EE4C1ADC
:1045C0009FED291A9FED372A02EE0C1A9FED282A3B
:1045D00002EE211ADFED231A21EE211AF0EE410A34
:1045E00038EE401AC1EE201AF0EE61CA3CEE2C1AE9
:1045F000B0EE41CA6D1C00BF1CEE900AFBF7F6FF3F
:1046000041EC1B0BB0EE4B0AF0EE6B0A01F032FCF2
:10461000B0EE40AAF0EE60AA9FED230B53EC102BF6
:1046200051EC1A0BFCF70EF803D200E018E0642DF1
:104630009ADB9FED1F0AB4EEC0CAF1EE10FA0EDB52
:10464000B5EEC0CAF1EE10FA09D8642D07DAB0EE63
:10465000080A3CEE400A84ED000A002017E700BF7C
:10466000032014E70000C8423211803B7F051BB5D0
:104670001D2D93AC0000000085EB9341713DC343B9
:10468000662280377F051BB600000040260270BFFF
:10469000000000E0AF60B3BE00805444BD378635F3
:1046A000000048437F059BB5000000A0F7C6B03E60
:1046B000000048C370B504460D461646B2B2A1B21A
:1046C000284600F08BF870BD70B504460D461646BE
:1046D000B2B2A1B2284600F0A9F870BDF8B5044600
:1046E0000E4615466068B0F5827F0DD1A068B0F522
:1046F000004F03D0A068B0F5806F05D12068006836
:1047000020F04000216808606068B0F5827F1FD10A
:10471000A068B0F5806F0DD033460022802120467E
:10472000009500F09FF908B3606D40F020006065CF
:104730000320F8BD3346002201212046009500F0F9
:1047400091F998B1606D40F0200060650320F0E7BA
:104750003346002201212046009500F083F928B15C
:10476000606D40F0200060650320E2E70020E0E794
:104770007CB504460D461646164800681821B0FB65
:10478000F1F01549B0FBF1F04FF47A714843019014
:104790006068B0F5827F0DD12B4600228021204633
:1047A000009600F05FF998B1606D40F02000606500
:1047B00003207CBD00BF019800B908E00198401EAD
:1047C000019020688068C0F3C0100028F3D100BFBA
:1047D0000020EEE70000002040420F002DE9F041EC
:1047E00006460F469046002400BF0FE031193A19E3
:1047F00090B200F041F8054635B1902105A001F0D6
:10480000ABFA2846BDE8F081601C84B24445EDDB7C
:104810000020F7E72E2E2F4253502F61743235318E
:104820003238625F7370692E630000002DE9F04139
:1048300006460F469046002400BF0CE03A1991B29C
:10484000301900F069F805461DB17F2104A001F080
:1048500083FA601C84B24445F0DB2846BDE8F08151
:104860002E2E2F4253502F61743235313238625F11
:104870007370692E63000000FEB505460E460024E5
:10488000280A0290E8B20190032000900022102133
:104890001A48FDF7EBF900226946012003F03AFEC1
:1048A00004461CB15A2116A001F056FA002202A9B2
:1048B000012003F02FFE04461CB1602110A001F07E
:1048C0004BFA002201A9012003F024FE04461CB18A
:1048D00066210BA001F040FA32460021012003F0CE
:1048E00019FE04461CB16C2105A001F035FA012225
:1048F00010210248FDF7BAF92046FEBD0000024033
:104900002E2E2F4253502F61743235313238625F70
:104910007370692E63000000FEB506460D46002444
:1049200006200090280A0290E8B20190002210218F
:104930003148FDF79BF900226946012003F0EAFDAA
:1049400004461CB11E212DA001F006FA01221021FF
:104950002948FDF78BF9002210212748FDF786F939
:104960000220009000226946012003F0D3FD044696
:104970001CB1292121A001F0EFF9002202A9012098
:1049800003F0C8FD04461CB12F211CA001F0E4F97E
:10499000002201A9012003F0BDFD04461CB1352110
:1049A00016A001F0D9F900223146012003F0B2FD32
:1049B00004461CB13B2111A001F0CEF901221021C7
:1049C0000D48FDF753F9002210210B48FDF74EF971
:1049D0000420009000226946012003F09BFD04465C
:1049E0001CB1452105A001F0B7F9012210210248B0
:1049F000FDF73CF92046FEBD000002402E2E2F425E
:104A000053502F61743235313238625F7370692EC2
:104A10006300000000B587B0142102A8FBF71CFC5E
:104A200000BF002001900D48006840F001000B49D4
:104A300008600846006800F00100019000BF00BF58
:104A40001020029001200390002004900320059084
:104A500002A90348FDF702F807B000BD3038024054
:104A6000000002402DE9F04104460E4617461D465F
:104A7000DDF818803EE0681CD8B3FDF7FDF8A0EB28
:104A80000800A84200D2A5BB2068406820F0E000E2
:104A9000216848606068B0F5827F0DD1A068B0F5EC
:104AA000004F03D0A068B0F5806F05D12068006882
:104AB00020F0400021680860A06AB0F5005F0DD1C9
:104AC00000BF2068006820F400502168086020685A
:104AD000006840F400502168086000BF012084F89D
:104AE000510000BF002084F8500000BF0320BDE843
:104AF000F081FFE7206880683040B04201D101209A
:104B000000E00020B842B6D10020F0E7704710B5B1
:104B1000FDF7B8F810BD000000B593B0302107A82C
:104B2000FBF79AFB142102A8FBF796FB00BF0020BD
:104B300001902648006840F08050244908600846EB
:104B4000006800F08050019000BF00BF00BF00204F
:104B500001901F48006840F480401D4908600846E5
:104B6000006800F48040019000BF00BF0120079062
:104B70000004089002200D9041050E9108210F912C
:104B80004FF4A8711091022111910421129107A8EC
:104B9000FDF7CEFA18B12D210EA001F0CFF80F20AD
:104BA000029002200390002004904FF4A050059042
:104BB0004FF480500690052102A8FDF779F918B14D
:104BC0003B2104A001F0BAF813B000BD4038024008
:104BD000007000406D61696E2E630000144800682B
:104BE00040F47000124908601248006840F001006B
:104BF0001049086000200F49083108600D4800681E
:104C00000D4908400B4908600C48091D0860081F41
:104C1000006820F48020091F0860002005490C313D
:104C200008604FF00060024980390860704700005A
:104C300088ED00E000380240FFFFF6FE103000244F
:104C400038B50446002544F2A010B0FBF4F500BFCF
:104C5000002000902048006840F001001E490860D4
:104C60000846006800F00100009000BF00BF1B482C
:104C70001B490860681E486042F20F711848C16005
:104C8000002101618160FEF796F918B13E2115A05F
:104C900001F08CF8602017490860002048608860A7
:104CA00000220F48FEF703F918B148210DA001F0CA
:104CB0007DF800210A48FEF799F904220D490848B9
:104CC000FEF7F5F818B14F2106A001F06FF80421A6
:104CD0000348FEF78BF938BD44380240000001401C
:104CE000E40500202E2E2F4253502F70776D2E6337
:104CF000000000006406002038B50446002544F298
:104D0000A010B0FBF4F500BF002000902E48006812
:104D100040F002002C4908600846006800F00200DC
:104D2000009000BF00BF294829490860681E4860FC
:104D300042F20F712648C160002101618160FEF7D7
:104D40003AF918B1642123A001F030F86020254918
:104D5000086000204860886000221D48FEF7A7F820
:104D600018B16E211BA001F021F800211848FEF7B0
:104D70003DF904221B491648FEF799F818B1752130
:104D800014A001F013F804211148FEF72FF90822AE
:104D900014490F48FEF78BF818B17C210DA001F0E3
:104DA00005F808210A48FEF721F90C220D490848A8
:104DB000FEF77DF818B1832106A000F0F7FF0C2163
:104DC0000348FEF713F938BD4038024000040040A4
:104DD000240600202E2E2F4253502F70776D2E6305
:104DE000000000006406002010B50268294B9842BC
:104DF0000ED0B0F1804F0BD0274B984208D0274BF4
:104E0000984205D0264B984202D0264B984203D1B7
:104E100022F070024B681A431E4B984220D0B0F12A
:104E2000804F1DD01C4B98421AD01C4B984217D073
:104E30001B4B984214D01B4B984211D01A4B9842EE
:104E40000ED01A4B98420BD0194B984208D0194BF0
:104E5000984205D0184B984202D0184B984203D183
:104E600022F44072CB681A4322F080034C6943EA73
:104E7000040202608B68C3620B688362054B984230
:104E800002D0084B984201D10B69036301234361AF
:104E900010BD000000000140000400400008004078
:104EA000000C00400004014000400140004401406B
:104EB0000048014000180040001C00400020004055
:104EC00030B501F01F05012404FA05F3046A9C4380
:104ED0000462046A01F01F0502FA05F52C4304621E
:104EE00030BD000030B5056A25F001050562026A93
:104EF0004368846924F0700424F003040D682C4393
:104F000022F002028D682A43104DA84200D103E02E
:104F10000F4DA84206D100BF22F00802CD682A43F7
:104F200022F00402094DA84202D0094DA84207D13F
:104F300023F4807323F400734D692B438D692B4355
:104F4000436084614D684563026230BD00000140EA
:104F50000004014030B5056A25F010050562026ABB
:104F60004368846924F4E04424F440740D6844EAFE
:104F7000052422F020028D6842EA0512124DA84253
:104F800000D103E0114DA84207D100BF22F08002FA
:104F9000CD6842EA051222F040020B4DA84202D031
:104FA0000A4DA84209D123F4806323F400634D69BC
:104FB00043EA85038D6943EA8503436084614D6854
:104FC0008563026230BD0000000001400004014022
:104FD00030B5056A25F480750562026A4368C469C4
:104FE00024F0700424F003040D682C4322F40072B2
:104FF0008D6842EA0522124DA84200D103E0114D0E
:10500000A84207D100BF22F40062CD6842EA05221F
:1050100022F480620A4DA84202D00A4DA84209D16A
:1050200023F4805323F400534D6943EA05138D693B
:1050300043EA05134360C4614D68C563026230BD35
:10504000000001400004014030B5056A25F4805598
:105050000562036A4468C26922F4E04222F44072A5
:105060000D6842EA052223F400538D6843EA0533B4
:10507000084DA84202D0084DA84204D124F480442F
:105080004D6944EA85144460C2614D680564036259
:1050900030BD0000000001400004014000B587B0B1
:1050A000142102A8FBF7D8F800BF00200190164891
:1050B000006840F01000144908600846006800F0DD
:1050C0001000019000BF00BF00BF00200190084603
:1050D000006840F0100008600846006800F010000A
:1050E000019000BF00BF4FF42060029002200390A7
:1050F00001200490032005900120069002A9034896
:10510000FCF7ACFC07B000BD303802400010024094
:1051100000B587B0142102A8FBF79EF800BF00205D
:1051200001902548006840F00400234908600846C3
:10513000006800F00400019000BF00BF00BF002025
:1051400001900846006840F00400086008460068C6
:1051500000F00400019000BF00BF00BF00200190DC
:105160000846006840F0040008600846006800F047
:105170000400019000BF00BF00BF0020019008465E
:10518000006840F0040008600846006800F0040071
:10519000019000BF00BF4FF4707002900220039096
:1051A00001200490032005900220069002A90348E4
:1051B000FCF754FC07B000BD303802400008024044
:1051C000F0EE402AB0EE603A5748D0ED004AF4EED7
:1051D000642AF1EE10FA06D0C0ED002ADFED534A42
:1051E0005348C0ED004A72EEC30A5148D0ED004A60
:1051F00074EEA04AC0ED004AD0ED004A9FED4D5A32
:10520000F4EEC54AF1EE10FA04DDDFED4A4AC0EDD6
:10521000004A0BE04648D0ED004AF5EEC04AF1EEF8
:1052200010FA03D2DFED414AC0ED004A4248D0ED0A
:10523000004A30EEE44A21EE205AF7EE005AC5EE5D
:10524000254A3B4890ED005A21EE855ADFED3B5A46
:1052500085EE256A74EE864AB0EE640A02EE040A10
:10526000DFED323ADFED334AB4EEE40AF1EE10FA44
:1052700008DDDFED304A70EE644A84EEA15AF0EEAC
:10528000453A0CE0B5EEC00AF1EE10FA07D2DFEDB8
:10529000274A70EE644A84EEA15AF0EE453A24485B
:1052A000D0ED004A74EEE34AC0ED004AD0ED004A6A
:1052B000234890ED005AF4EEC54AF1EE10FA05DDF0
:1052C000D0ED004A1A48C0ED004A0FE01848D0ED72
:1052D000004A1C4890ED005AF4EEC54AF1EE10FA6F
:1052E00004D2D0ED004A1248C0ED004ADFED114A69
:1052F000B4EEE40AF1EE10FA04DDDFED0E4AB0EE92
:10530000640A08E0B5EEC00AF1EE10FA03D2DFED50
:10531000074AB0EE640A0848C0ED000AFCEEC04A35
:1053200014EE900A80B2704768050020000000006B
:105330005805002000401C4664050020000048423B
:10534000600500205C05002010B510481049086079
:105350004FF4E130486000210D488160C160016177
:1053600081610C2141610021C161FDF717FF18B176
:105370003E2108A000F044FD05480068C06840F0E8
:10538000200003490968C86010BD000000100140FA
:10539000980900202E2E2F4253502F75736172747E
:1053A0002E63000010B51048104908604FF4E1303A
:1053B000486000210D488160C160016181610C215C
:1053C00041610021C161FDF7E9FE18B1522108A039
:1053D00000F016FD05480068C06840F02000034951
:1053E0000968C86010BD000000440040D8090020D2
:1053F0002E2E2F4253502F75736172742E6300004E
:1054000010B51048104908604FF4E13048600021A1
:105410000D488160C160016181610C214161002101
:10542000C161FDF7BBFE18B1662108A000F0E8FCE1
:1054300005480068C06840F0200003490968C8605A
:1054400010BD000000480040180A00202E2E2F42F8
:1054500053502F75736172742E63000070B505464A
:10546000AC6B0020E085E0842046FDF7EBFD70BDCD
:105470000168C96821F490710268D16001684969C6
:1054800021F0010102685161202180F83A10704733
:1054900010B504462068C06820F040002168C8604C
:1054A000202084F839002046FEF7AFF8002010BD18
:1054B00070B5044694F83A0022284AD1A068B0F5A5
:1054C000805F13D1A56A206940B920684068C0F3A5
:1054D00008002880A06A801CA06219E0206840684B
:1054E000C0B22880A06A401CA06211E0206938B9CF
:1054F00020684068C1B2A26A501CA062117007E027
:105500002068406800F07F01A26A501CA062117000
:10551000E08D401E80B2E085C8B92068C06820F0E8
:1055200020002168C8602068C06820F4807021686D
:10553000C8602068406920F001002168486120208F
:1055400084F83A002046FDF7F3FF002070BD0020EC
:10555000FCE70220FAE700002DE9F84F0446206836
:10556000006920F44050E16808432168086121691E
:10557000A068084361690843E16908430090206816
:10558000C06849F20C618843009908432168C860EB
:105590002068406920F44070A1690843216848618F
:1055A000E069B0F5004F75D1E3492068884203D027
:1055B000E249206888426FD1FCF752FD8146022003
:1055C0006168A0FB01510B461920A9FB00712A4616
:1055D0003846FAF7F7FD6421B0FBF1F04FEA001A04
:1055E00002206168A0FB01510B461920A9FB007144
:1055F0002A463846FAF7E6FD074602206168A0FB16
:1056000001510B461920A9FB00B12A465846FAF76A
:10561000D9FD6421B0FBF1F000EBC00101EB0010FB
:10562000A7EB8000322101EBC0006421B0FBF1F058
:1056300000F0F8000AEB400A02206168A0FB01516B
:105640000B461920A9FB00712A463846FAF7BAFD25
:10565000074602206168A0FB01510B461920A9FBF7
:1056600000B12A465846FAF7ADFD6421B0FBF1F0CF
:1056700000EBC00101EB0010A7EB8000322101EB31
:10568000C0006421B0FBF1F000F007005044216835
:1056900088604FE16EE0FFE7FCF7D2FC8146022014
:1056A0006168A0FB01510B461920A9FB00712A4635
:1056B0003846FAF787FD6421B0FBF1F04FEA001A93
:1056C00002206168A0FB01510B461920A9FB007163
:1056D0002A463846FAF776FD074602206168A0FBA5
:1056E00001510B461920A9FB00B12A465846FAF78A
:1056F00069FD6421B0FBF1F000EBC00101EB00108B
:10570000A7EB8000322101EBC0006421B0FBF1F077
:1057100000F0F8000AEB400A02206168A0FB01518A
:105720000B461920A9FB00712A463846FAF74AFDB4
:10573000074602206168A0FB015003461920A9FB1F
:1057400000B12A465846FAF73DFD6421B0FBF1F05E
:1057500000EBC00101EB0010A7EB8000322101EB50
:10576000C0006421B0FBF1F000F007005044216854
:105770008860DFE070492068884203D06F49206864
:1057800088426BD1FCF76CFC814604206168A0FB69
:1057900001510B461920A9FB00712A463846FAF739
:1057A00011FD824604206168A0FB01510B461920BF
:1057B000A9FB00712A463846FAF704FD6421B0FBC4
:1057C000F1F000EBC00101EB0010AAEB80003221E8
:1057D00001EB00106421B0FBF1F000F0F00A0420AE
:1057E0006168A0FB015003461920A9FB00712A46FD
:1057F0003846FAF7E7FC6421B0FBF1F00AEB001A37
:1058000004206168A0FB01510B461920A9FB00711F
:105810002A463846FAF7D6FC074604206168A0FB02
:10582000015003461920A9FB00B12A465846FAF751
:10583000C9FC6421B0FBF1F000EBC00101EB0010EA
:10584000A7EB8000322101EB00106421B0FBF1F0E6
:1058500000F00F005044216888606BE0FCF7F0FB1B
:10586000814604206168A0FB015003461920A9FB72
:1058700000712A463846FAF7A5FC82460420616882
:10588000A0FB015003461920A9FB00712A463846A7
:10589000FAF798FC6421B0FBF1F000EBC00101EBDA
:1058A0000010AAEB8000322101EB00106421B0FB54
:1058B000F1F000F0F00A04206168A0FB01500346FB
:1058C0001920A9FB00712A463846FAF77BFC6421AF
:1058D000B0FBF1F00AEB001A04206168A0FB017034
:1058E00003461920A9FB005001463A462846FAF71C
:1058F00069FC074604206168A0FB0150034619209B
:10590000A9FB00B12A465846FAF75CFC6421B0FBBB
:10591000F1F000EBC00101EB0010A7EB8000322199
:1059200001EB00106421B0FBF1F000F00F005044D7
:1059300021688860BDE8F88F001001400014014024
:10594000014691F8390021282CD18868B0F5805F94
:105950000FD10A6A1088C0F308000B685860086904
:1059600018B9086A801C086209E0086A401C0862CD
:1059700005E00B6A581C086218780B685860C88CE0
:10598000401E80B2C88458B90868C06820F0800002
:105990000B68D8600868C06840F040000B68D860A9
:1059A000002070470220FCE72DE9F04104460D4637
:1059B00017469846069E21E0701CF8B12EB1FCF700
:1059C0005BF9A0EB0800B04218D92068C06820F449
:1059D000D0702168C8602068406920F0010021680B
:1059E0004861202084F8390084F83A0000BF002084
:1059F00084F8380000BF0320BDE8F081206800680B
:105A00002840A84201D1012000E00020B842D3D0B4
:105A10000020F1E708B50F4800680068C0F34010A7
:105A2000A0B14FF47A73012269460A48FDF710FDD0
:105A30000948007830B9FCF71FF9084908600120CF
:105A40000549087069460648FEF7C9FC0148FDF79C
:105A5000FBFA08BD980900204505002040050020FC
:105A6000C80C002008B50F4800680068C0F340105B
:105A7000A0B14FF47A73012269460A48FDF7E8FCA9
:105A80000948007830B9FCF7F7F8084908600120A8
:105A90000549087069460648FEF7A1FC0148FDF774
:105AA000D3FA08BDD80900204D0500204805002084
:105AB000580A002008B54FF480611148FCF7CEF871
:105AC000D0B9104800680068C0F34010A0B14FF48E
:105AD0007A73012269460B48FDF7BAFC0A48007840
