:020000040800F2
:10000000180F0120250300087D460008334400082E
:10001000794600083F0E00086D5B000800000000F4
:100020000000000000000000000000006502000861
:100030001510000800000000C10200085552000819
:100040003F0300083F0300083F0300083F03000888
:100050003F0300083F0300083F0300083F03000878
:100060003F0300083F0300083F0300083F03000868
:100070003F0300083F0300083F0300083F03000858
:100080003F0300083F0300083F0300083F03000848
:10009000450E00083F0300083F0300083F03000827
:1000A0003F0300083F0300083F0300083F03000828
:1000B0003F0300083F0300083F0300083F03000818
:1000C0003F0300083F0300083F0300083F03000808
:1000D0003F0300084D5B00083F0300083F03000892
:1000E0003F0300083F0300083F0300083F030008E8
:1000F0003F0300083F0300083F0300083F030008D8
:100100003F0300083F0300083F0300083F030008C7
:10011000095600083F0300083F0300083F0300089A
:100120003F0300083F0300083F0300083F030008A7
:100130003F030008191000083F0300083F030008B0
:100140003F0300083F0300083F0300083F03000887
:100150003F0300083F0300083F0300085D5B000801
:100160003F0300083F0300083F0300083F03000867
:100170003F0300083F0300083F03000800000000A1
:100180003F0300083F0300083F0300083F03000847
:100190003F0300083F0300083F0300083F03000837
:1001A0003F0300083F0300083F03000800F002F887
:1001B00000F048F80AA090E8000C82448344AAF1B9
:1001C0000107DA4501D100F03DF8AFF2090EBAE8B7
:1001D0000F0013F0010F18BFFB1A43F0010318477B
:1001E0005CCF00007CCF0000103A24BF78C878C1F3
:1001F000FAD8520724BF30C830C144BF04680C602D
:10020000704700000023002400250026103A28BF74
:1002100078C1FBD8520728BF30C148BF0B60704778
:10022000642900F0A181782900F0DA81002070476C
:100230001FB50CF0A0FB9DE8030000F0B1FB1FBD53
:1002400010B510BD00F099FC1146FFF7F1FF08F062
:100250009BF900F0B7FC03B4FFF7F2FF03BC05F015
:10026000BAFF00002C4B19680868B0E8F04F80F323
:100270000988BFF36F8F4FF0000080F3118870473B
:100280000000000008480068006880F308884FF00C
:10029000000080F3148862B661B6BFF34F8FBFF3DE
:1002A0006F8F00DF00BF00BF08ED00E0DFF80C003B
:1002B000016841F470010160704700BF88ED00E003
:1002C000EFF30980BFF36F8F134B1A681EF0100F06
:1002D00008BF20ED108A20E9F04F106009B44FF0FC
:1002E000500080F31188BFF34F8FBFF36F8F0AF078
:1002F0006DFC4FF0000080F3118809BC1968086894
:10030000B0E8F04F1EF0100F08BFB0EC108A80F379
:100310000988BFF36F8F704774000020EFF30580EA
:10032000704700000948804709480047FEE7FEE79C
:10033000FEE7FEE7FEE7FEE7FEE7FEE7FEE7FEE795
:1003400004480549054A064B704700002153000840
:10035000AD01000818090120180F0120180B012019
:10036000180B0120704770B5064600F0F9FA0568D1
:1003700006F10B0020F00704B4429CBF002070BDC2
:100380002B466A68BAB11068A04210D304F1080184
:1003900088423CBF5068586007D3516810194160CB
:1003A0001168091B016058601460101D70BD134670
:1003B0005268002AE7D12146284600F0DDFA0028DD
:1003C000DED170BD70B50446051F00F0C9FA0068A3
:1003D000002C14BF446870BD002C18BFAC423CBF59
:1003E00020466468F8D301680A18AA4218BF45601D
:1003F00003D12A6805461144016028684119A142C9
:100400001CBF6C6070BD6168696021680844286029
:1004100070BD53EA020C00F069802DE9F04B4FF0FB
:100420000006002B1FBFB3FA83F503FA05F424FA84
:1004300005F65E4012BF1643B2FA82F502FA05F4E1
:10044000C5F120051EBF22FA05FC44EA0C04203544
:1004500056EA044C4FEA144418BF641C4FF00008DD
:100460004FF00009904271EB030C39D3002919BFFA
:10047000B1FA81F701FA07F6B0FA80F700FA07F649
:10048000C7F120071EBF20FA07FC46EA0C062037FA
:10049000B6FBF4FCA7EB0507103F07F01F0BCBF1F1
:1004A00020060CFA0BFB2CFA06F644BFB3460026D6
:1004B000202FA4BF5E464FF0000B5BEA060C08BF7E
:1004C0004FF0010B19EB0B09ABFB027C48EB060864
:1004D000C01B06FB02CC0BFB03CC71EB0C01C1E78C
:1004E0000B46024641464846BDE8F08B13B54FF037
:1004F00000004FF00001AFF30080BDE81C407047E2
:100500000FB4044910B503AA029800F0E3FA10BC36
:100510005DF814FB1C00002070B504468569006876
:10052000C10601D5302600E02026C00707D070BDE7
:10053000D4E9012130469047206A401C20626D1E9C
:10054000F6D570BD70B5044685690078C00707D13F
:1005500070BDD4E9012120209047206A401C206210
:100560006D1EF6D570BD00002DE9F0410646002451
:1005700010687529314616A510D0AFF30080002809
:1005800002DA404213A507E031688A0701D512A5B7
:1005900002E0490704D511A5012401E0AFF3008072
:1005A00000210A2206F1240709E0B0FBF2FCB0FBAF
:1005B000F2F302FB1C00303078541846491C002826
:1005C000F3D123462A463046BDE8F04100F029BA6F
:1005D000000000002D0000002B00000020000000A3
:1005E00070B504460D4621461068AFF3008021889F
:1005F000090502D50F4A7A4402E00E4A7A440E32C7
:10060000002104F1240305E000F00F060009965DC7
:100610005E54491C0028F7D120780023000704D538
:10062000702D02D009B1022311322046BDE870407E
:1006300000F0F7B98ECA00002DE9F05F8946044644
:100640004FF0000ADFF824B1FB44C0F820A0204698
:10065000E168884700287DD0252806D0D4E901210B
:100660009047206A401C2062F1E700255F46204643
:10067000E16888472028064607DB312E05D2B819E5
:1006800010F8200C08B10543F1E7A80701D525F0C3
:100690000405C4F81CA00027C4F818A02A2E09D00D
:1006A000304605F091FD38B304EB8708303EC8F8BA
:1006B000186019E059F8041B204604EB8702916189
:1006C000E1688847012F064618D1E069002820DA42
:1006D00025F020051DE0D8F8180000EB800006EB9F
:1006E00040003038C8F818002046E16888470646C0
:1006F00005F06AFD0028EED1012F0AD02E2E08D178
:100700002046E16888477F1C0646022F45F02005F9
:10071000C4DBA069002803DA404245F00105A0616E
:10072000E80701D025F01005A6B1A6F1410019286F
:1007300002D8203645F400654A46314620462560F9
:100740004D46FFF76DFD60B1012807D0ED1D25F086
:10075000070000E007E000F1080978E705F1040967
:1007600075E730467AE7206ABDE8F09F64CA00006A
:1007700040EA010310B59B070FD1042A0DD310C81E
:1007800008C9121F9C42F8D020BA19BA884201D970
:10079000012010BD4FF0FF3010BD1AB1D30703D0B8
:1007A000521C07E0002010BD10F8013B11F8014B6E
:1007B0001B1B07D110F8013B11F8014B1B1B01D18A
:1007C000921EF1D1184610BD032A40F2308010F07D
:1007D000030C00F0158011F8013BBCF1020F6244DC
:1007E00098BF11F801CB00F8013B38BF11F8013B6D
:1007F000A2F1040298BF00F801CB38BF00F8013B1A
:1008000011F0030300F02580083AC0F0088051F889
:10081000043B083A51F804CBA0E80810F5E7121D94
:100820005CBF51F8043B40F8043BAFF30080D207B3
:1008300024BF11F8013B11F801CB48BF11F8012B7F
:1008400024BF00F8013B00F801CB48BF00F8012BA2
:10085000704710B5203AC0F00B80B1E81850203A2C
:10086000A0E81850B1E81850A0E81850BFF4F5AF50
:100870005FEA027C24BFB1E81850A0E8185044BFDA
:1008800018C918C0BDE810405FEA827C24BF51F847
:10089000043B40F8043B08BF7047D20728BF31F83B
:1008A000023B48BF11F8012B28BF20F8023B48BF8C
:1008B00000F8012B704702F0FF0343EA032242EAEB
:1008C000024200F002B84FF000020429C0F012808A
:1008D00010F0030C00F01B80CCF1040CBCF1020FF3
:1008E00018BF00F8012BA8BF20F8022BA1EB0C01C8
:1008F00000F00DB85FEAC17C24BF00F8012B00F8BE
:10090000012B48BF00F8012B70474FF0000200B5E3
:10091000134694469646203922BFA0E80C50A0E822
:100920000C50B1F12001BFF4F7AF090728BFA0E8D0
:100930000C5048BF0CC05DF804EB890028BF40F89C
:10094000042B08BF704748BF20F8022B11F0804FDE
:1009500018BF00F8012B7047704770477047704709
:1009600000487047C008012000487047B8080120BF
:10097000704770477047704738B504460A460020F4
:100980006946AFF30080002808BF38BD02460099D1
:10099000204600F0B5F8012038BD012000F0E6B88F
:1009A000F8B5AFF30080054600200C46102000BFCC
:1009B0000646A819A0420DD9324669460020AFF379
:1009C0000080070008BF00F0D1F80098A04218BFCF
:1009D0000546C419FFF7C4FF05600746F01D20F067
:1009E00007004619284600F00AF8B44208BFF8BDCF
:1009F000A21B31463868BDE8F84000F081B80021FC
:100A00000160C0E9011070471020704710B5FFF772
:100A1000ABFF006810BD10B50446FFF7A5FF0460EA
:100A200010BD2DE9F0470D4699469246044600F167
:100A300024080168880604D5E06921F010012160CE
:100A400000E00120A84201DD471B00E00027A1696A
:100A50007A1902EB0900081AA0612078C00602D4B6
:100A60002046FFF759FD002608E0D4E901211AF8D5
:100A700006009047206A401C761C20624E45F4DB3D
:100A80002078C0060AD52046FFF746FD06E0D4E9E7
:100A9000012130209047206A401C2062381EA7F1B7
:100AA0000107F4DC07E0D4E9012118F805009047BC
:100AB000206A401C2062281EA5F10105F3DC2046B7
:100AC000FFF740FD2078000602D50220BDE8F08740
:100AD0000120FBE7074B70B50D467B4400F02FF873
:100AE0000446284600F03EF810B14FF0FF3070BDCC
:100AF000204670BD2B71000000487047B8080120E7
:100B0000034640688C46002818BF88423CBF034615
:100B10004068F8D318681844884207D00CF10300E5
:100B200020F00700001D411A521A0146081D0A60F4
:100B3000FFF748BC01694A1C02610878704700B59C
:100B40008FB0CDE901310021059105497944CDE906
:100B5000031011466846FFF76FFD0FB000BD00009F
:100B6000E5FFFFFF007B00F08000704710B500F04C
:100B700037F8BDE8104000F02EB87546FFF7BCFF0F
:100B8000AE4605006946534620F00700854618B07A
:100B900020B5FFF7D5FBBDE820404FF000064FF031
:100BA00000074FF000084FF0000B21F00701AC46A2
:100BB000ACE8C009ACE8C009ACE8C009ACE8C009C1
:100BC0008D46704710B50446AFF300802046BDE85F
:100BD0001040FFF740BB002801D005F0FCBA704779
:100BE00010B5012805D0002103A000F021F8012054
:100BF00010BD09A1F8E7000053494752544D454D37
:100C00003A204F7574206F662068656170206D65AD
:100C10006D6F7279000000003A2048656170206DA8
:100C2000656D6F727920636F7272757074656400A0
:100C300070B505460C460A2000E06D1C05F0CDFAA3
:100C400035B128780028F8D102E0641C05F0C5FA17
:100C500014B120780028F8D1BDE870400A2005F0D2
:100C6000BCBA000055494A6822F440324A604A68DA
:100C700043681A434A600268526822F4807203682B
:100C80005A6002685368026943EA022203685A60A4
:100C90000268526822F0407203685A600268526823
:100CA00083681A4303685A600268926822F40062FB
:100CB00003689A6002689268C3681A4303689A607E
:100CC0003F4B826A9A4218D00268926822F07062A2
:100CD00003689A6002689268836A1A4303689A609C
:100CE0000268926822F0405203689A600268926833
:100CF000C36A1A4303689A600BE00268926822F0A4
:100D0000706203689A600268926822F04052036839
:100D10009A600268926822F0020203689A60026890
:100D20009368027E43EA420203689A602022125CC2
:100D3000A2B10268526842F4006203685A60026815
:100D4000526822F4604203685A6002685368426A3B
:100D5000521E43EA423203685A6005E00268526854
:100D600022F4006203685A600268D26A22F47002B8
:100D70000368DA620268D36A828B521E43EA025227
:100D80000368DA620268926822F4007203689A606B
:100D90000268936890F8302043EA422203689A6020
:100DA0000268926822F4806203689A60026893681D
:100DB000426943EA822203689A6070470023014037
:100DC0000100000F38B505460C4605A000680090EC
:100DD000032322466946284603F080FE38BD000002
:100DE000FFFFFFFF10B506F089FF10BD38B50446C0
:100DF0000820009001226946204603F0FDFE38BD20
:100E00002DE9FC4180460E4617461C46402000EB6B
:100E10008701601E0844C0B28DF80000002504E080
:100E2000715D681C0DF80010C5B2A542F8DB601CAE
:100E3000C2B26946404603F0DFFEBDE8FC8100BF58
:100E4000FEE7000010B5024801F01DF810BD0000DB
:100E5000F4010020B0EE401A31EE602AF0EE421AA2
:100E600090ED002AD0ED062A22EE222AD0ED012AAA
:100E700090ED073A02EE832AD0ED022A02EEA12A73
:100E8000D0ED032A90ED0A3A02EE832AB0EE420A30
:100E900090ED0C2AB4EEC02AF1EE10FA03D290EDD8
:100EA0000C2AB0EE420A90ED0B2AB4EEC02AF1EE05
:100EB00010FA03DD90ED0B2AB0EE420A90ED062AFF
:100EC00080ED072A80ED060AC0ED0A1A704700007F
:100ED00070B52DED0E8B04469FED4B0AB0EE409A97
:100EE000B1EE040AB0EE40AAB6EE000AF0EE40AA57
:100EF000B7EE000AB0EE40DAB0EE000AB0EE40EA1B
:100F0000B1EE490AC0EE0A0A10EE905A28460BF0DC
:100F1000C1FC41EC1C0BB0EE4C0AF0EE6C0A04F084
:100F2000F7FEB0EE40BAF0EE60BA51EC1B0B0AF0DF
:100F3000C7FF08EE900AB7EE000A30EE680AF0EE3E
:100F400040DAB1EE490AC0EE2A0A10EE905A28465D
:100F50000BF0A0FC41EC1C0BB0EE4C0AF0EE6C0A5E
:100F600004F0D6FEB0EE40BAF0EE60BA51EC1B0BC6
:100F70000AF0A6FF08EE100A2DEE8D0AF0EE409A58
:100F800084ED008AB1EE480A20EE280A84ED010AB9
:100F9000B7EE000A30EE480AC0EE290AC4ED020A94
:100FA000B7EE000A30EE480AF1EE680A20EE200A99
:100FB000C0EE290AC4ED030A9FED140A84ED040A69
:100FC0009FED120A84ED050A9FED100A84ED060AD2
:100FD0009FED0E0A84ED070A9FED0C0A84ED080AC6
:100FE0009FED0A0A84ED090A9FED080A84ED0A0ABA
:100FF0009FED060A84ED0B0A9FED050A84ED0C0AAD
:10100000BDEC0E8B70BD0000CDCCCC3D00000000CF
:101010000000C8427047000010B50A49886A06F00F
:101020003DFA08B107F094FA4FF4803105480068A2
:1010300000F58050416140210248006800F5805071
:10104000416110BD9806002072B600BFFEE70FB4E4
:1010500070B52DED028B82B0044658212046FFF773
:1010600054FC9DF8240020700AA801909DF82400EB
:10107000072875D2DFE800F0040E18305C75830095
:10108000019810F8041BCDB201902946204606F0C5
:1010900017FA8DE0019810F8041BCDB20190294693
:1010A000204606F061FC83E00198C01D20F0070097
:1010B0000190B0EC021BB0EE410AF0EE610A019023
:1010C00051EC100B0AF0FCFE08EE100AB0EE480AD4
:1010D000204606F01FFC6BE00198C01D20F00700C1
:1010E0000190B0EC021BB0EE410AF0EE610A0190F3
:1010F00051EC100B0AF0E4FE08EE100A0198C01D36
:1011000020F007000190B0EC021BB0EE410AF0EEB7
:10111000610A019051EC100B0AF0D2FE08EE900A21
:10112000F0EE680AB0EE480A204606F039FA3FE0D1
:101130000198C01D20F007000190B0EC021BB0EE3A
:10114000410AF0EE610A019051EC100B0AF0B8FE72
:1011500008EE100AB0EE480A204606F0A5FC27E08B
:1011600025E0019810F8041BCDB20190019840C809
:10117000019032462946204606F0D2FC18E001983C
:10118000C01D20F007000190B0EC021BB0EE410A38
:10119000F0EE610A019051EC100B0AF091FE08EE9E
:1011A000100AB0EE480A204606F0D0F900E000BF71
:1011B00000BF002001900120607002B0BDEC028BE6
:1011C00070BC5DF814FB10B52DED028B0446B0EE3B
:1011D000408A607820B9B0EE480ABDEC028B10BDA1
:1011E000207807282FD2DFE800F0040A10161C220E
:1011F0002800B0EE480A204606F07AF9EDE7B0EE96
:10120000480A204606F0C2FBE7E7B0EE480A20464F
:1012100006F08CFBE1E7B0EE480A204606F01AFA29
:10122000DBE7B0EE480A204606F04AFCD5E7B0EE10
:10123000480A204606F0ACFCCFE7B0EE480A20464C
:1012400006F090F9C9E7B0EE480AC6E770B52DED93
:10125000068B0446B0EE408AF0EE608A38EE680AEB
:1012600084ED160A94ED160AD4ED150A30EE600AE4
:1012700084ED170AD4ED160AB0EE600AF1EE040A06
:1012800000F0A8F80546D4ED170AB0EE600AF7EEB4
:10129000000A00F09FF80646C5EBC5003649084431
:1012A000805700EE100AB8EEC00AF6EE000A20EEF3
:1012B000200AB0EE409AC5EBC5003049084480577B
:1012C00000EE100AB8EEC00ADFED2D0A20EE200A6B
:1012D000F0EE409AC5EBC5002A490844805700EE5D
:1012E000100AB8EEC00ADFED280A20EE200AB0EEA0
:1012F00040AA94ED120A30EE090A84ED000A94ED3A
:10130000130A30EE290A84ED010A94ED140A30EE36
:101310000A0A84ED020A94ED000ADFED190AB4EE20
:10132000E00AF1EE10FA03D29FED150A84ED000AEF
:1013300094ED010AB5EEC00AF1EE10FA03D29FED6A
:10134000130A84ED010A94ED020AB5EEC00AF1EE2B
:1013500010FA03D29FED0D0A84ED020A94ED160AED
:1013600084ED150AF0EE680AB0EE480A204603F054
:101370001BFEBDEC068B70BDB0C90008E1C90008BA
:10138000CDCCCC3D12CA0008CDCC4C3D00000000B5
:1013900010B50446204603F009FFB0EE000A84EDC4
:1013A000120AB6EE000A84ED130A9FED080A84EDD6
:1013B000140A9FED070A84ED150A9FED050A84EDD6
:1013C000160A9FED030A84ED170A10BDCDCCCC3D63
:1013D00000000000B0EE401AC1EE201AB0EE610A23
:1013E000FEEE001AB4EEE10AF1EE10FA01D8002088
:1013F0007047DFED171AB4EEE10AF1EE10FA01D8EA
:101400000120F5E7DFED131AB4EEE10AF1EE10FA70
:1014100001D80220ECE7DFED101AB4EEE10AF1EE9C
:1014200010FA01D80320E3E7DFED0C1AB4EEE10A6D
:10143000F1EE10FA01D80420DAE7F6EE001AB4EE65
:10144000E10AF1EE10FA01D80520D1E70620CFE736
:10145000CDCC4CBECDCC4CBDCDCC4C3DCDCC4C3E02
:1014600038B502460020009000BF92F83C000128E9
:1014700001D1022038BD012082F83C0000BF08687D
:10148000092816D91068C0680C780A3C04EB44059A
:101490000724AC40A0431468E0600C780A3C04EBDD
:1014A00044048868A0401468E46820431468E0603D
:1014B00013E0106800690C7804EB44050724AC4085
:1014C000A043146820610C7804EB44048868A040B1
:1014D000146824692043146820614868072817D2DB
:1014E0001068406B0C79641E04EB84051F24AC402B
:1014F000A04314686063088880B20C79641E04EB12
:101500008404A0401468646B20431468606331E075
:1015100048680D2817D21068006B0C79E41F04EBA3
:1015200084051F24AC40A04314682063088880B25F
:101530000C79E41F04EB8404A0401468246B20435E
:101540001468206316E01068C06A0C790D3C04EB47
:1015500084051F24AC40A0431468E062088880B270
:101560000C790D3C04EB8404A0401468E46A204329
:101570001468E0621E4B1F4C1068A0420AD1086834
:10158000122807D1586820F400005860586840F4C9
:1015900080005860174C1068A04222D1164C086891
:1015A000A04202D0086811281BD1586820F480009E
:1015B0005860586840F4000058600F4C0868A0421A
:1015C0000FD10E4800680E4CB0FBF4F000EB800029
:1015D0004000009002E00098401E00900098002813
:1015E000F9D100BF002082F83C0000BF00BF41E7F6
:1015F000002301400020014012000010E000002004
:1016000040420F0001460868C06C704770B5044640
:1016100000250CB9012070BD1549A06A884200D090
:1016200000BF206C30B9204600F024F80020606430
:1016300084F83C00206C00F0100088B9206C20F485
:10164000885040F0020020642046FFF70BFB00208A
:101650006064206C20F0020040F00100206400E093
:10166000012500BF002084F83C0000BF2846D2E7D7
:101670000100000F10B586B004464049206888423A
:1016800046D100BF00BF002000903D48006840F4F4
:1016900080603B4908600846006800F48060009064
:1016A00000BF00BF00BF00BF00BF00200090344853
:1016B0001438006840F020003149143908600846A9
:1016C000006800F02000009000BF00BF00BF00BF16
:1016D000002000900846006840F0040008600846BA
:1016E000006800F00400009000BF00BF4FF4C86025
:1016F0000190032002900020039001A9214800F0EE
:10170000DDFE0520019001A91F4800F0D7FE32E060
:101710001E49206888422ED100BF00BF00200090E3
:101720001748006840F48070154908600846006852
:1017300000F48070009000BF00BF00BF00BF00BF7A
:10174000002000900E481438006840F002000C4958
:10175000143908600846006800F00200009000BFDD
:1017600000BF00BF0320019002900020039001A958
:10177000074800F0A3FE06B010BD000000220140A3
:10178000443802400014024000080240002001409A
:101790000004024070B504460D46002620688068AB
:1017A00000F48060B0F5806F11D12068806800F48B
:1017B0008070B0F5807F0AD1206C40F0200020645A
:1017C00000BF002084F83C0000BF012070BD00F085
:1017D0008BFF064618E0681CB0B125B100F084FF0D
:1017E000801BA84210D92068006800F0020002287F
:1017F0000AD0206C40F00400206400BF002084F870
:101800003C0000BF0320E1E72068006800F0020010
:101810000228E0D16FF0120021680860206C40F4CB
:10182000007020642068806800F04050B8B9207EC5
:10183000A8B92068C06A00F4700020B120688068F0
:1018400000F4806058B9206C20F480702064206C13
:1018500000F4805018B9206C40F001002064002092
:10186000B4E7000008B501460020009000BF91F8E1
:101870003C00012801D1022008BD012081F83C0074
:1018800000BF0868806800F00100A0B9086880689F
:1018900040F001000B6898603F4800683F4BB0FB88
:1018A000F3F000EB4000009002E00098401E009032
:1018B00000980028F9D10868806800F0010000282D
:1018C00060D0086C40F20163984340F48070086473
:1018D0000868406800F4806028B1086C20F400506B
:1018E00040F480500864086C00F48050B0F5805FCC
:1018F00004D1486C20F00600486401E000204864F0
:1019000000BF002081F83C0000BF254A6FF0220094
:101910000B681860506800F01F0018BB214B086866
:10192000984213D0204B0868984204D1101D0068DB
:1019300000F01F0050B11D4B086898422AD118488A
:10194000001D006800F01F00102823D2086880687E
:1019500000F04050F0B90868806840F080400B68A3
:10196000986017E00F4B0868984213D108688068A8
:1019700000F0405070B90868806840F080400B6803
:10198000986007E0086C40F010000864486C40F074
:101990000100486400206FE7E000002040420F0093
:1019A00000230140002001400021014000220140AD
:1019B00010B5024692F82030012B01D0022B1CD129
:1019C00001F0010028B11068806840F080001468C0
:1019D000A06001F0020028B11068806840F4004067
:1019E0001468A06001F0040028B11068806840F419
:1019F00000001468A060002010BD506A40F48020F0
:101A000050620120F8E710B5024692F82030012B11
:101A100001D0022B06D11068406908431468606148
:101A2000002010BD506A40F4802050620120F8E789
:101A3000F0B504460D461E4694F820702068836871
:101A4000A86800B900E000BF012F01D0022F7CD1AF
:101A500003F0806030B903F0006018B903F08050E3
:101A6000002873D0C3F30161022905D9606A40F4EC
:101A7000000060620120F0BD012088403060A8684D
:101A800060B9B5F800C0E86840EA4C5C206800F531
:101A9000C07000EB0110C0F800C00FE0D5E901C034
:101AA00040EACC00D5F80CC040EA0C00D4F800C0E5
:101AB0000CF5C07C0CEB011CCCF80000D5F810C074
:101AC000206800F5C07000EB0110C0F804C0287D4C
:101AD00001280ED1206800F5C07000EB01104068AD
:101AE00040F4807C206800F5C07000EB0110C0F865
:101AF00004C0D079000692F806C040EA0C4092F883
:101B000005C040EA0C2C10794CEA000C206800F566
:101B1000C07000EB0110C0F80CC0D078000692F83D
:101B200002C040EA0C4092F801C040EA0C2092F852
:101B300000C040EA0C00D4F800C00CF5C07C0CEBEF
:101B4000011CCCF80800206801E016E00FE000F569
:101B5000C07000EB0110006840F0010C206800F537
:101B6000C07000EB0110C0F800C0002083E7606A7D
:101B700040F40010606201207DE7606A40F480203C
:101B80006062012077E70000F0B504460A4621684C
:101B900094F82050012D01D0022D7ED1424901F54B
:101BA0000071086840F001000860086820F47C506B
:101BB00008600868566A40EA06200860107D00F058
:101BC0001F06012000FA06F3C8699843C861A1F511
:101BD0000071D069C8B9D1F80C029843C1F80C0261
:101BE000908880B2968940EA064601F510705769E0
:101BF00040F83760108880B2168940EA064601F541
:101C00001070576900EBC7004660D069012819D1F0
:101C1000D1F80C021843C1F80C02908880B21688E3
:101C200040EA064601F51070576940F83760908920
:101C300080B2168940EA064601F51070576900EB3C
:101C4000C7004660906928B9D1F804029843C1F8EA
:101C5000040204E0D1F804021843C1F80402106938
:101C600028B9D1F814029843C1F8140204E0D1F85D
:101C700014021843C1F81402106A012804D1D1F8E3
:101C80001C021843C1F81C02D1F8000220F0010028
:101C9000C1F800020020F0BDFFE7606A40F4802038
:101CA00060620120F7E7000000640040704710B553
:101CB0000246002092F82030012B01D0022B09D1DE
:101CC00021B91468E46804F0030003E0146824698F
:101CD00004F0030010BD70B5044694F82050012DA7
:101CE00001D0022D7DD151B92068C06800F00300F9
:101CF00080B9606A40F400106062012070BD206805
:101D0000006900F0030028B9606A40F400106062C6
:101D10000120F3E7206800F5D87000EB011000689F
:101D200000F004009060906840B9206800F5D87019
:101D300000EB01100068400D106007E0206800F51E
:101D4000D87000EB01100068C0085060206800F5F2
:101D5000D87000EB0110006800F00200D06020682D
:101D600000F5D87000EB0110406800F00F00106122
:101D7000206800F5D87000EB0110406800F47F4047
:101D8000000A9061206800F5D87000EB01104068EF
:101D9000000C5061206800F5D87000EB01108068DD
:101DA0001870206800F5D87000EB0110806800F40E
:101DB0007F40000A5870206800F5D87000EB0110D1
:101DC000806800F47F00000C9870206800F5D870DF
:101DD00000EB01108068000ED870206800F5D87004
:101DE00000E02FE000EB0110C0681871206800F5DA
:101DF000D87000EB0110C06800F47F40000A5871F1
:101E0000206800F5D87000EB0110C06800F47F0076
:101E1000000C9871206800F5D87000EB0110C068C4
:101E2000000ED87131B92068C06840F020002668E3
:101E3000F06005E02068006940F02000266830610D
:101E400000205BE7606A40F480206062012055E773
:101E50000146002091F82020012A01D0022A11D148
:101E60000B689B6803F0806303B1401C0B689B68A0
:101E700003F0006303B1401C0B689B6803F08053C0
:101E800003B1401C70472DE9F05F0446002520682F
:101E900046692068D0F80490206887682068D0F8E8
:101EA0000CA02068D0F810B02068D0F8188006F098
:101EB0000100002855D007F00100C0B101202168C1
:101EC000886007F0020018B1204600F072FA0EE0B8
:101ED00007F0040010B145F4006508E007F00800C1
:101EE00010B145F4805502E0204600F061FA07F495
:101EF0008070C8B14FF480702168886007F400706A
:101F000018B1204600F057FA0EE007F4806010B1D7
:101F100045F4005508E007F4006010B145F4804531
:101F200002E0204600F046FA07F48030C8B14FF4D2
:101F300080302168886007F4003018B1204600F036
:101F40003CFA0EE007F4802010B145F4004508E0AB
:101F500007F4002010B145F4803502E0204600F07F
:101F60002BFA06F0080038B10AF0100020B145F451
:101F7000007510202168C86006F0040040B10AF026
:101F8000080028B108202168C860204600F0B6F992
:101F900006F0020038B12068C06800F0030010B1FC
:101FA000204600F0ADF906F0400038B10BF010000B
:101FB00020B145F4806510202168086106F02000FA
:101FC00040B10BF0080028B10820216808612046C4
:101FD00000F0BCF906F0100038B12068006900F08C
:101FE000030010B1204600F0B2F906F4003040B111
:101FF00009F0100028B1102021684860204600F048
:10200000A7F906F4803040B109F0080028B1082093
:1020100021684860204600F0D1F906F4004088B3FA
:1020200009F0040078B306F4807020B108F00100D4
:1020300008B145F0010506F4007020B108F0020077
:1020400008B145F0020506F4806020B108F00400F4
:1020500008B145F0040506F40060A0B108F0700076
:1020600088B108F07000402817D006DC10280BD08B
:1020700020280CD0302819D10CE0502810D060282E
:1020800014D110E01DE019E045F008050FE045F01F
:1020900010050CE045F0200509E045F0400506E09C
:1020A00045F0800503E045F4807500E000BF00BF07
:1020B0002068806920F07000216888610420216810
:1020C00048602DB1606A284360622046FFF7EEFD4C
:1020D000BDE8F09F70B504460CB9012070BD94F8BE
:1020E000200010B9204600F0AFF82068006840F0EA
:1020F00001002168086000F0F7FA05460DE000F0E5
:10210000F3FA401B0A2808D9606A40F40030606284
:10211000052084F820000120E0E72068406800F0F6
:1021200001000028EBD02068006820F00200216840
:10213000086000F0D9FA05460DE000F0D5FA401B22
:102140000A2808D9606A40F400306062052084F8EB
:1021500020000120C2E72068406800F0020000284B
:10216000EBD1207E012806D12068006840F0800075
:102170002168086005E02068006820F08000216880
:102180000860607E012806D12068006840F04000A9
:102190002168086005E02068006820F040002168A0
:1021A0000860A07E012806D12068006840F0200069
:1021B0002168086005E02068006820F020002168A0
:1021C0000860E07E012806D12068006820F0100039
:1021D0002168086005E02068006840F01000216870
:1021E0000860207F012806D12068006840F00800C0
:1021F0002168086005E02068006820F00800216878
:102200000860607F012806D12068006840F0040063
:102210002168086005E02068006820F0040021685B
:102220000860D4E902010843216908436169084351
:102230006168491E08432168C8610020606201206E
:1022400084F82000002049E710B586B004462849EC
:10225000206888424AD100BF00BF00200090254876
:10226000006840F00100234908600846006800F05B
:102270000100009000BF00BF00BF00BF00BF0020F2
:1022800000900846006840F00100086008460068B9
:1022900000F00100009000BF00BF00BF00BF0020A1
:1022A000009014481030006840F00070114910315F
:1022B00008600846006800F00070009000BF00BF92
:1022C00088140190022002900120039002200490C3
:1022D0000920059001A9084800F0F0F84FF40060CB
:1022E000019001A9044800F0E9F800BF06B010BD54
:1022F0000064004030380240000002407047000097
:102300001CB504460F492068884219D112E06B467B
:102310000D4A00212046FFF7DEFC58B90A488068C4
:1023200040B90948C06828B907490A7C0868694665
:1023300004F016FA00212046FFF7B9FC0028E6D188
:102340001CBD00000064004034020020704770474C
:10235000704770B5044694F82000012822D102206D
:1023600084F820002068006820F0010021680860DF
:1023700000F0BAF905460DE000F0B6F9401B0A2856
:1023800008D9606A40F400306062052084F82000BB
:10239000012070BD2068406800F001000028EBD1EA
:1023A0006062F6E7606A40F4002060620120F0E7B6
:1023B000704770477047704770477047704770B5F7
:1023C0000446A56D00F090F9064694F83500022801
:1023D00008D08020606500BF002084F8340000BF72
:1023E000012070BD2068006820F016002168086098
:1023F0002068406920F0800021684861206C08B99D
:10240000A06C28B12068006820F0080021680860EE
:102410002068006820F001002168086010E000F0EA
:1024200063F9801B05280BD920206065032084F800
:10243000350000BF002084F8340000BF0320D0E73F
:102440002068006800F001000028E8D194F85C10D2
:102450003F208840A860012084F8350000BF00209C
:1024600084F8340000BF00BFBBE7014691F8350097
:10247000022803D08020486501207047052081F89C
:1024800035000868006820F001000A68106000202C
:10249000F3E7000070B5044600F026F9064625462D
:1024A000681C10B104480078054400BF00F01CF916
:1024B000801BA842FAD370BD14000020F8B5024674
:1024C0000B460025002400200021DFE0012606FA4B
:1024D00001F51E6806EA0504AC4274D11E7906F0C7
:1024E0000306012E04D01E7906F00306022E13D136
:1024F00090684F000326BE40B0434F00DE68BE40E8
:1025000030439060506801268E40B0431E79C6F378
:1025100000168E40304350601E7906F00306032EED
:1025200009D0D0684F000326BE40B0434F009E68DC
:10253000BE403043D0601E7906F00306022E13D150
:10254000CF0802F1200656F827004E07F70E0F2697
:10255000BE40B0434F07FF0E1E69BE403043CF0858
:1025600002F1200646F8270010684F000326BE40FF
:10257000B0431E7906F003064F00BE4030431060A2
:102580005E6806F44036002E7FD000BF002600961D
:10259000404E366846F480463E4F3E603E463668C2
:1025A00006F48046009600BF00BF3B4E8F0856F8E9
:1025B00027008E07370F0F26BE40B043374EB2427A
:1025C00002D100262EE060E0354EB24201D1012654
:1025D00028E0344EB24201D1022623E0324EB2420C
:1025E00001D103261EE0314EB24201D1042619E08A
:1025F0002F4EB24201D1052614E02E4EB24201D137
:1026000006260FE02C4EB24201D107260AE02B4EDF
:10261000B24201D1082605E0294EB24201D1092675
:1026200000E00A268F073F0FBE4030431A4E8F0846
:1026300046F82700234E3068A0435E6806F48036D3
:1026400006B120431F4E3060361D3068A0435E68DF
:1026500006F4003606B120431A4E361D3060361D92
:102660003068A0435E6806F4801606B12043154E1C
:1026700008363060361D3068A0435E6806F40016E8
:1026800006B120430F4E0C363060491C1029FFF470
:102690001DAFF8BD44380240083801400000024038
:1026A0000004024000080240000C024000100240FA
:1026B0000014024000180240001C024000200240AA
:1026C00000240240003C014010B5426921EA0203A7
:1026D00002EA010443EA0443836110BD0AB1816147
:1026E00001E00B04836170470148006870470000F7
:1026F0000C00002003480068034909780844014998
:10270000086070470C0000201400002010B50D4830
:10271000006840F400700B4908600846006840F407
:10272000806008600846006840F4807008600320FC
:1027300000F0A8F80F2000F007F800F02BF80020B8
:1027400010BD0000003C024070B504460E48007801
:102750004FF47A71B1FBF0F00C490968B1FBF0F568
:10276000284601F0A6F808B1012070BD102C07D250
:1027700000222146501E00F047F80548046001E0A1
:102780000120F2E70020F0E714000020E000002024
:102790001000002008B500BF00200090114800681C
:1027A00040F480400F4908600846006800F480400B
:1027B000009000BF00BF00BF00200090081F00680D
:1027C00040F08050091F08600846006800F0805003
:1027D000009000BF00BF00220F21901E00F014F8EF
:1027E00008BD00004438024001460846002809DBC5
:1027F00000F01F0301229A4043099B0003F1E023EC
:10280000C3F8002100BF70472DE9F05F80460D46F8
:102810001646002703F05CFA074639462A46334637
:1028200001F00700C0F1070ABAF1040F02D94FF016
:10283000040A01E0C0F1070AD14600F1040ABAF126
:10284000070F02D24FF0000A01E0A0F1030AD446BC
:102850004FF0010A0AFA09FAAAF1010A0AEA020A81
:102860000AFA0CFA4FF0010B0BFA0CFBABF1010B5F
:102870000BEA030B4AEA0B042146404603F030FA08
:10288000BDE8F09F00BF00F00702064B19684FF645
:10289000FF031940044B0B4343EA0221014B19602B
:1028A00000BF70470CED00E00000FA0570B504466B
:1028B0000D460CB9012070BD5848006800F00F00AB
:1028C000A84209D255490D700846006800F00F0073
:1028D000A84201D00120EEE7207800F00200022893
:1028E0001DD1207800F00400042805D14C48006870
:1028F00040F4E0504A490860207800F008000828B9
:1029000005D14748006840F46040454908604448A4
:10291000006820F0F000A168084341490860207871
:1029200000F00100A8B36068012807D13C480838CE
:102930000068C0F34040B8B90120BCE760680228D5
:1029400002D06068032807D1354808380068C0F312
:10295000406048B90120AEE7314808380068C0F34C
:10296000400008B90120A6E72D48006820F00300C8
:10297000616808432A490860FFF7B6FE064609E089
:10298000FFF7B2FE801B41F28831884202D9032052
:1029900091E707E02248006800F00C006168B0EBA6
:1029A000810FEDD11D48006800F00F00A84209D941
:1029B0001A490D700846006800F00F00A84201D0C7
:1029C000012078E7207800F00400042807D114489B
:1029D000006820F4E050E16808431149086020785D
:1029E00000F00800082808D10D48006820F4604075
:1029F000216940EAC1000A49086000F03FF808492F
:102A00000968C1F30311074A515CC84006490860D0
:102A100006480068FFF798FE00204CE7003C0240A3
:102A20000838024070D00008E000002010000020AC
:102A30000148006870470000E000002000B5FFF783
:102A4000F7FF04490968C1F38221034A515CC84079
:102A500000BD00000838024080D0000800B5FFF734
:102A6000E7FF04490968C1F34231034A515CC84099
:102A700000BD00000838024080D000082DE9F04772
:102A8000002400250026A1462548006800F00C001F
:102A900020B1042805D008283AD105E0DFF8849059
:102AA00039E0DFF8849036E01D48001F006800F030
:102AB0003F041B48001F006800F4800078B11A48EA
:102AC0001749091F0968C1F38811A0FB017001466D
:102AD000224600233846FDF79CFC05460EE01148CF
:102AE0000F49091F0968C1F38811A0FB0170014655
:102AF000224600233846FDF78CFC05460848001F97
:102B00000068C0F30140401C4600B5FBF6F902E046
:102B1000DFF8109000BF00BF4846BDE8F087000016
:102B2000083802400024F40000127A00F8B5044688
:102B30000CB90120F8BD207800F00100002874D005
:102B4000F948006800F00C0004280DD0F648006831
:102B500000F00C00082813D1F348001F006800F4AF
:102B60008000B0F5800F0BD1EF4808380068C0F343
:102B70004040002859D06068002856D10120D9E78C
:102B800000BF6068B0F5803F08D1E74808380068AA
:102B900040F48030E449083908601EE06068B0F510
:102BA000A02F0DD1E0480838006840F48020DE49AD
:102BB000083908600846006840F4803008600CE07E
:102BC000D9480838006820F48030D74908390860AF
:102BD0000846006820F48020086000BF606890B15B
:102BE000FFF782FD054606E0FFF77EFD401B6428E7
:102BF00001D903209EE7CC4808380068C0F3404064
:102C00000028F1D011E0FFF76FFD054606E0FFF761
:102C10006BFD401B642801D903208BE7C2480838AC
:102C20000068C0F340400028F1D1207800F0020095
:102C300002285FD1BC48006800F00C0058B1BA48C7
:102C4000006800F00C0008281CD1B748001F00687D
:102C500000F48000B0B9B44808380068C0F3400000
:102C600020B1E068012801D0012063E7AE480838B0
:102C7000006820F0F800216940EAC100AA4908393B
:102C8000086037E0E06800B30120A8490860FFF75A
:102C90002BFD054606E0FFF727FD401B022801D962
:102CA000032047E7A04808380068C0F34000002828
:102CB000F1D09D480838006820F0F800216940EA0A
:102CC000C10099490839086014E00020974908605C
:102CD000FFF70AFD054606E0FFF706FD401B022848
:102CE00001D9032026E7904808380068C0F3400067
:102CF0000028F1D1207800F0080008282CD1606964
:102D0000A8B101208A490860FFF7EEFC054606E0FD
:102D1000FFF7EAFC401B022801D903200AE782489A
:102D20006C300068C0F340000028F1D014E00020AF
:102D30007F490860FFF7D8FC054606E0FFF7D4FCA2
:102D4000401B022801D90320F4E677486C30006864
:102D5000C0F340000028F1D1207800F004000428DE
:102D600070D1002770483830006800F0805090B96A
:102D700000BF002000906C483830006840F0805060
:102D80006949383108600846006800F080500090BA
:102D900000BF00BF01276748006800F48070B0B929
:102DA0006448006840F4807062490860FFF79CFC4A
:102DB000054606E0FFF798FC401B022801D90320D6
:102DC000B8E65C48006800F480700028F2D000BFCC
:102DD000A068012808D154486830006840F001001C
:102DE0005149683108601DE0A06805280DD14E48A2
:102DF0006830006840F004004B49683108600846BC
:102E0000006840F0010008600CE047486830006846
:102E100020F001004449683108600846006820F04D
:102E20000400086000BFA068A8B1FFF75DFC05467C
:102E300009E0FFF759FC401B41F28831884202D972
:102E4000032077E626E0384868300068C0F3400089
:102E50000028EED013E0FFF747FC054608E0FFF737
:102E600043FC401B41F28831884201D9032061E6CE
:102E70002D4868300068C0F340000028EFD1012FD2
:102E800007D129483830006820F080502649383171
:102E9000086000BFA069002845D02348006800F002
:102EA0000C0008285DD0A069022845D100201F49E8
:102EB0000866FFF719FC054606E0FFF715FC401B06
:102EC000022801D9032035E6174808380068C0F306
:102ED00040600028F1D1D4E907010843616A40EA63
:102EE00081110122A06AC2EB500041EA00412C206E
:102EF000005D41EA00600C49091F086001200B4990
:102F00000866FFF7F1FB054606E0FFF7EDFB401B07
:102F1000022801D903200DE6034808380068C0F3F1
:102F200040600028F1D049E00838024000004742E4
:102F3000800E474200700040002021490866FFF7DC
:102F4000D3FB054606E0FFF7CFFB401B022801D963
:102F50000320EFE51B480068C0F340600028F2D171
:102F60002CE0A069012800D1E4E51648001D0668A0
:102F7000A069012820D006F48001E06981421BD1BC
:102F800006F03F01206A814216D147F6C0703040FA
:102F9000616AB0EB811F0FD106F440310122A06AB3
:102FA000C2EB5000B1EB004F06D106F070612C204F
:102FB000005DB1EB006F01D00120BBE50020B9E559
:102FC000000047420038024010B504460CB9012009
:102FD00010BD606A38B96068B0F5827F00D105E045
:102FE0000021E16102E00021216161610021A16213
:102FF00094F8510028B9002084F85000204600F0D1
:1030000047F8022084F851002068006820F0400052
:1030100021680860A08800F48270218901F40441CD
:103020000843A18901F400610843217C01F00201F9
:103030000843217D01F001010843218B01F4007157
:103040000843217F01F0380108432021095D01F088
:1030500080010843218D01F4005108432168086074
:103060000421A06901EA104094F8241001F0100135
:103070000843216848602068C06920F40060216826
:10308000C86100206065012084F8510000209FE79E
:1030900010B586B00446FE49206888427ED100BF44
:1030A00000BF00200090FB48006840F40040F94950
:1030B00008600846006800F40040009000BF00BFB0
:1030C00000BF00BF00BF00200090F2481038006829
:1030D00040F00200EF49103908600846006800F02F
:1030E0000200009000BF00BF00BF00BF00BF002073
:1030F00000900846006840F002000860084600683A
:1031000000F00200009000BF00BF00BF00BF00BF82
:10311000002000900846006840F00400086008465F
:10312000006800F00400009000BF00BF00BF00BFB7
:1031300000BF002000900846006840F001000860D1
:103140000846006800F00100009000BF00BF00BF0B
:1031500000BF00BF002000900846006840F08000DB
:1031600008600846006800F08000009000BF00BFC3
:1031700000BF00BF00BF002000900846006840F07C
:10318000800008600846006800F08000009000BFE2
:1031900000BF00BF01200290039000E03EE003204A
:1031A00004901020019001A9BB48FFF787F9012284
:1031B0001021B948FFF792FA4020019001A9B748C1
:1031C000FFF77CF900224021B448FFF787FA8020FE
:1031D000019001A9B148FFF771F901228021AF48A0
:1031E000FFF77CFA08200190022002900120039052
:1031F000022004900620059001A9A948FFF75EF976
:103200001020019001A9A648FFF758F94FF480500B
:10321000019001A9A348FFF751F92AE2A2492068C9
:1032200088427DD100BF00BF002000909948001D5A
:10323000006840F480509749091D086008460068FE
:1032400000F48050009000BF00BF00BF00BF00BF6F
:10325000002000908F481038006840F001008D4930
:10326000103908600846006800F00100009000BFB7
:1032700000BF00BF00BF00BF0020009008460068EC
:1032800040F0010008600846006800F0010000906E
:1032900000BF00BF00BF00BF00BF00200090084675
:1032A000006840F0020008600846006800F0020074
:1032B000009000BF00BF00BF00BF00BF0020009013
:1032C0000846006840F4807008600846006800F412
:1032D0008070009000BF00BF00BF00BF00BF002093
:1032E00000900846006840F0080008600846006842
:1032F00000F00800009000BF00BF00BF00BF00BF8B
:10330000002000900846006840F040000860084631
:10331000006800F04000009000BF00BF00BF00E068
:103320007EE000BF00BF002000900846006840F427
:10333000807008600846006800F48070009000BF4C
:1033400000BF00BF012002900390032004900420DE
:10335000019001A95548FFF7B1F801220421534813
:10336000FFF7BCF94FF40040019001A95048FFF766
:10337000A5F80122D1034E48FFF7B0F908200190CB
:1033800001A94C48FFF79AF8012208214948FFF7A4
:10339000A5F98020019001A94648FFF78FF8012286
:1033A00080214448FFF79AF94020019001A9414843
:1033B000FFF784F8002240213E48FFF78FF9802074
:1033C000019001A93948FFF779F800228021374898
:1033D000FFF784F90420019001A93648FFF76EF841
:1033E000002204213348FFF779F9202001900220C0
:1033F000029001200390022004900520059001A96D
:103400002548FFF75BF84020019001A92248FFF70B
:1034100055F82020019001A92148FFF74FF828E135
:10342000254920688842FAD100BF00BF00200090E3
:103430001848006840F48040164908600846006853
:1034400000F48040009000BF00BF00BF00BF00BF7D
:10345000002000900F481038006840F002000D492D
:10346000103908600846006800F00200009000BFB4
:1034700000BF00BF00BF00BF0020009008460068EA
:1034800040F0020008600846006800F0020015E005
:10349000003C00404038024000000240001C024056
:1034A000000402400008024000300140000C0240CD
:1034B000001802400020024000380040009000BF89
:1034C00000BF00BF00BF00BF00200090084600689A
:1034D00040F0020008600846006800F0020000901A
:1034E00000BF00BF00BF00BF00BF00200090084623
:1034F000006840F0800008600846006800F0800026
:10350000009000BF00BF00BF00BF00BF00200090C0
:103510000846006840F0800008600846006800F037
:103520008000009000BF00BF00BF00BF00BF0020B0
:1035300000900846006840F00200086008460068F5
:1035400000F00200009000BF00BF00BF00BF00BF3E
:10355000002000900846006840F00400086008461B
:10356000006800F00400009000BF00BF00BF012011
:1035700002900390032004904FF40040019001A9B1
:103580003D48FEF79BFF0122D1033B48FFF7A6F819
:103590004FF40060019001A93748FEF78FFF012228
:1035A000D1023548FFF79AF84FF48050019001A9F5
:1035B0003248FEF783FF012211033048FFF78EF8EF
:1035C0004FF40070019001A92D48FEF777FF01220A
:1035D00051022B48FFF782F84FF48040019001A977
:1035E0002548FEF76BFF00224FF480412248FFF789
:1035F00075F84FF48060019001A91F48FEF75EFF47
:1036000000224FF480611C48FFF768F80820019001
:1036100001A91C48FEF752FF002208211948FFF7B4
:103620005DF84020019001A91648FEF747FF0022EF
:1036300040211448FFF752F84FF400500190022047
:10364000029001200390022004900520059001A91A
:103650000A48FEF733FF4FF48040019001A9074864
:10366000FEF72CFF4FF40040019001A90348FEF73C
:1036700025FF06B010BD0000001C024000040240FF
:1036800000080240001802402DE9FF5F044688460A
:1036900091461D460E9E012002900020019000BF21
:1036A00094F85000012803D1022004B0BDE8F09F37
:1036B000012084F8500000BFFFF716F8074694F881
:1036C00051B060680390AA46BBF1010F0BD003987C
:1036D000B0F5827F04D1A06810B9BBF1040F02D00D
:1036E00002200190DBE0B8F1000F03D0B9F1000F28
:1036F00000D015B901200190D1E094F851000428C0
:1037000002D0052084F8510000206065C4F838908C
:10371000E587A587C4F83080E586A58620646064C7
:103720002068006800F04000402805D0206800684C
:1037300040F0400021680860E068B0F5006F4AD1B1
:10374000606810B1BAF1010F09D1206B00882168BF
:10375000C860206B801C2063E08E401EE08633E052
:103760002068806800F00200022810D1E08E70B15D
:10377000029801280BD1206B00882168C860206B5B
:10378000801C2063E08E401EE086002002902068AE
:10379000806800F0010068B1E08F58B12068C0680F
:1037A000A16B0880A06B801CA063E08F401EE087A7
:1037B00001200290FEF798FFC01BB04204D3701C9A
:1037C00010B1032001906AE0E08E0028C8D1E08F9C
:1037D0000028C5D14AE0606810B1BAF1010F09D1E3
:1037E000206B007821680873206B401C2063E08EFA
:1037F000401EE08634E02068806800F00200022865
:1038000010D1E08E70B1029801280BD1206B0078A6
:1038100021680873206B401C2063E08E401EE08608
:10382000002002902068806800F0010068B1E08FFD
:1038300058B12068C068A16B0870A06B401CA063E1
:10384000E08F401EE08701200290FEF74DFFC01B75
:10385000B04201D3701C00B916B9032001901EE0DC
:10386000E08E0028C7D1E08F0028C4D13A46314607
:10387000204601F0FDF820B1012001902020606574
:103880000DE0A06850B900BF002000902068C0681B
:10389000009020688068009000BF00BF00BF01203A
:1038A00084F8510000BF002084F8500000BF019848
:1038B000FBE670B504462546681EB0F1807F01D353
:1038C00001200FE0681E4FF0E02148610F214FF00A
:1038D000FF3002F005FA00204FF0E0218861072058
:1038E0000861002070BD2DE9F04104460D461646E2
:1038F000002700BF94F83C00012802D10220BDE857
:10390000F081012084F83C0000BF36B1042E1BD0AA
:10391000082E31D00C2E5ED145E02946206801F0FA
:103920008BFD2068806940F008002168886120686C
:10393000806920F004002168886120688069296915
:1039400008432168886148E02946206801F0ACFD01
:103950002068806940F4006021688861206880697F
:1039600020F480602168886120688069296940EAC4
:1039700001202168886130E02946206801F0D2FDED
:103980002068C06940F008002168C8612068C069EB
:1039900020F004002168C8612068C06929690843D3
:1039A0002168C86119E02946206801F0F7FD206808
:1039B000C06940F400602168C8612068C06920F4D3
:1039C00080602168C8612068C069296940EA0120D7
:1039D0002168C86101E0012700BF00BF00BF0020CF
:1039E00084F83C0000BF384689E710B504460CB99E
:1039F000012010BD94F83D0028B9002084F83C0057
:103A0000204600F025F8022084F83D00211D2068A2
:103A100001F094FC012084F8460000BF84F83E00C9
:103A200001213F200155402001554120015500BF93
:103A300000BF012084F84200432001554420015575
:103A40004520015500BF012084F83D000020D0E74B
:103A500010B586B0044656492068884234D100BF6C
:103A600000BF002000905348006840F00400514916
:103A700008600846006800F00400009000BF00BF26
:103A800000BF00BF00BF002000904A481038006807
:103A900040F002004749103908600846006800F00D
:103AA0000200009000BF00BF00BF4FF4E070019023
:103AB000022002900120039002200490059001A9A9
:103AC0003D48FEF7FBFC71E03C492068884236D156
:103AD00000BF00BF0020009036481038006840F05A
:103AE00001003449103908600846006800F0010000
:103AF000009000BF00BF00BF00BF00BF00200090CB
:103B00002C48001D006840F001002A49091D08608A
:103B10000846006800F00100009000BF00BF00BF31
:103B20008815019002200290012003900220049049
:103B30000120059001A92248FEF7C0FC36E021498A
:103B40002068884232D100BF00BF00200090194891
:103B50001038006840F00400164910390860084623
:103B6000006800F00400009000BF00BF00BF00BF6D
:103B700000BF002000900F48006840F002000D498F
:103B800008600846006800F00200009000BF00BF17
:103B900000BF8815019002200290012003900220AE
:103BA0000490059001A90848FEF788FC06B010BDF6
:103BB000000800404038024000040240000001407C
:103BC00000000240000400400008024070B50446B6
:103BD0000D4615B994F83E000BE0042D02D13F20AC
:103BE000005D06E0082D02D14020005D01E041208B
:103BF000005D012801D0012070BD1DB9022084F8AC
:103C00003E000EE0042D03D102213F20015508E0C3
:103C1000082D03D102214020015502E0022141205C
:103C2000015501222946206801F0F4FB2349206850
:103C3000884203D022492068884201D1012000E057
:103C4000002028B12068406C40F40040216848649E
:103C50001A49206888421BD02068B0F1804F17D0E5
:103C600018492068884213D01749206888420FD02D
:103C70001649206888420BD011492068884207D035
:103C800013492068884203D01249206888420CD129
:103C90002068806800F00706062E0CD020680068B7
:103CA00040F001002168086005E02068006840F0ED
:103CB00001002168086000209EE70000000001402C
:103CC000000401400004004000080040000C0040D7
:103CD0000040014000180040704770472DE9F84F40
:103CE0000446206805682068C668206847694FF068
:103CF0000009CA4605F00F09B9F1000F0AD105F015
:103D0000200038B106F0200020B1204601F0F0FC80
:103D1000BDE8F88FB9F1000F7CD007F0010018B9A9
:103D200006F49070002875D005F0010030B106F45B
:103D3000807018B1206C40F00100206405F0040090
:103D400030B107F0010018B1206C40F0020020648F
:103D500005F0020030B107F0010018B1206C40F00E
:103D60000400206405F0080048B106F0200010B9F6
:103D700007F0010018B1206C40F008002064206CAE
:103D8000002846D005F0200028B106F0200010B130
:103D9000204601F0ADFC20684069C0F3801A206C19
:103DA00000F0080010B9BAF1000F2DD0204601F044
:103DB00059FC2068406900F04000402820D100BF35
:103DC00000BF2168143151E8001F21F04000216834
:103DD000143141E80002002AF3D100BFA06B50B1BA
:103DE0007548A16B0865A06BFEF73FFB88B1A06B1F
:103DF000016D88470DE02046FFF76FFF09E009E0FD
:103E00002046FFF76AFF04E02046FFF766FF002028
:103E100020647DE7206B012876D105F01000002892
:103E200072D006F010000028FAD000BF00200090E9
:103E300020680068009020684068009000BF00BFC4
:103E40002068406900F0400040285ED1A06B006807
:103E500040681FFA80F8B8F1000F54D0A08D40459B
:103E600051DDA4F82E80A06BC069B0F5807F43D0EF
:103E700000BF00BF21680C3151E8001F21F48070A1
:103E800021680C3141E80002002AF3D100BF00BFD5
:103E900000BF2168143151E8001F21F001002168A2
:103EA000143141E80002002AF3D100BF00BF00BF77
:103EB0002168143151E8001F21F0400021681431BD
:103EC00041E80002002AF3D100BF202084F83E0020
:103ED0000020206300BF00BF21680C3151E8001FA3
:103EE00021F0100021680C3141E80002002AF3D1D2
:103EF00000BFA06BFEF763FAA08DE28D801A81B23D
:103F00002046FFF7E9FE03E740E0A08DE18D401A6F
:103F10001FFA80F8E08DC0B3B8F1000F35D000BFB4
:103F200000BF21680C3151E8001F21F49070216816
:103F30000C3141E80002002AF3D100BF00BF00BFEE
:103F40002168143151E8001F21F00100216814316B
:103F500041E80002002AF3D100BF202084F83E008F
:103F60000020206300BF00BF21680C3151E8001F12
:103F700021F0100021680C3141E80002002AF3D141
:103F800000BF41462046FFF7A7FEC1E605F08000CE
:103F900030B106F0800018B1204601F05EFDB7E6B2
:103FA00005F0400030B106F0400018B1204601F0A5
:103FB0008FFBADE600BFABE65156000810B50446D6
:103FC0000CB9012010BDA06900B100E000BF94F859
:103FD0003D0028B9002084F83C00204600F028F875
:103FE000242084F83D002068C06820F40050216837
:103FF000C860204601F0F8FB2068006920F490407A
:10400000216808612068406920F02A002168486121
:104010002068C06840F400502168C8600020206417
:10402000202084F83D0084F83E000020CAE700000C
:1040300010B586B004465B492068884255D100BF60
:1040400000BF002000905848006840F0200056490A
:1040500008600846006800F02000009000BF00BF24
:1040600000BF00BF00BF002000904F481438006818
:1040700040F004004C49143908600846006800F01C
:104080000400009000BF00BF00BF00BF00BF0020C1
:1040900000900846006840F0040008600846006888
:1040A00000F00400009000BF00BF00BF402001905E
:1040B0000220029001200390022004900820059025
:1040C00001A93A48FEF7FAF98020019008200590EE
:1040D00001A93648FEF7F2F94720FEF785FB0322D7
:1040E00011464720FEF790FB59E03149206888428D
:1040F00055D100BF00BF002000902B48006840F061
:104100001000294908600846006800F0100000907F
:1041100000BF00BF00BF00BF00BF002000902248CA
:104120001438006840F001001F491439086008463F
:10413000006800F00100009000BF00BF00BF00BF9A
:1041400000BF002000900846006840F001000860B1
:104150000846006800F00100009000BF00BF00BFEB
:104160004815019002200290012003900220049043
:104170000720059001A90F48FEF7A0F94FF48060D1
:1041800001900720059001A90A48FEF797F925201C
:10419000FEF72AFB032211462520FEF735FB06B069
:1041A00010BD0000001401404438024000080240E5
:1041B00000100140000002402DE9F84F04460E4671
:1041C000174699464FF0000A94F83E0020285FD128
:1041D00006B117B90120BDE8F88F00BF94F83C0084
:1041E000012801D10220F6E7012084F83C0000BF3D
:1041F00000202064222084F83E0000202063FEF787
:1042000073FA8246A785E785A068B0F5805F04D180
:10421000206910B90025B04602E035464FF000088D
:1042200000BF002084F83C0000BF29E05346002274
:1042300020212046CDF8009001F03FFC08B103207A
:10424000C9E745B920684068C0F30800A8F8000035
:1042500008F1020811E0A068B0F5805F03D0A06803
:1042600028B9206918B920684068287004E02068DF
:10427000406800F07F0028706D1CE08D401EE085D6
:10428000E08D0028D2D1202084F83E000020A2E753
:104290000220A0E770B504460D46164694F83E008D
:1042A000202816D105B10EB9012070BD00BF94F8C9
:1042B0003C00012801D10220F7E7012084F83C00EE
:1042C00000BF0020206332462946204601F0A2FBB1
:1042D000EBE70220E9E7000010B5044650492068EA
:1042E00088424CD14F48B0F8C80000F4004028BBC9
:1042F0004C48B0F8C80000F4804090B1494890F8AC
:10430000CA000A2804D000204649A1F8C8002FE0BE
:104310004448B0F8C80040F400404249A1F8C80041
:1043200026E0404890F8CA000D2808D13D48B0F872
:10433000C80040F480403B49A1F8C80018E0394863
:1043400090F8CA003749B1F8C810C1F30D01354AD9
:1043500050541046B0F8C800401C1146A1F8C800DF
:104360000846B0F8C800C72802DD0020A1F8C80040
:1043700001222C49CA31881CFFF78CFF4FE02A49E3
:10438000206888424BD12948B0F8C80000F40040AA
:1043900028BB2648B0F8C80000F4804090B12348FC
:1043A00090F8CA000A2804D000202049A1F8C800CB
:1043B0002FE01E48B0F8C80040F400401B49A1F8A7
:1043C000C80026E0194890F8CA000D2808D11748FF
:1043D000B0F8C80040F480401449A1F8C80018E0C3
:1043E000124890F8CA001149B1F8C810C1F30D0184
:1043F0000E4A50541046B0F8C800401C1146A1F8AF
:10440000C8000846B0F8C800C72802DD0020A1F89F
:10441000C80001220549CA31881CFFF73BFF10BDC7
:10442000001401409809002000100140A80A002053
:10443000704700BFFEE7000070B504460D46022C31
:1044400000DB70BDC4EB8410384901F820509FEDAB
:10445000380AC4EB841001EB800080ED010A9FED67
:10446000340AC4EB841001EB800080ED020A9FED5A
:10447000310AC4EB841001EB800080ED030A0120B7
:10448000C4EB8411294A02EB81010874062D40D245
:10449000DFE805F0030D17212B35C4EB8411234A07
:1044A00002EB810101F1140000F080FE3BE0C4EB5F
:1044B00084111E4A02EB810101F1140000F00EFC90
:1044C00031E0C4EB8411194A02EB810101F11400BF
:1044D000FCF75EFF27E0C4EB8411144A02EB810174
:1044E00001F1140000F038FD1DE0C4EB84110F4A07
:1044F00002EB810101F11400FCF7EAFC13E0C4EBCC
:1045000084110A4A02EB810101F1140000F08CF8D9
:1045100009E0C4EB8411054A02EB810101F11400AA
:1045200000F044FE00BF00BF00BF8AE794F90020FE
:10453000000000000000C8420160426070470000B7
:10454000F0EE401AB0EE602A90ED024AB0EE440A56
:104550009FED344AF0EE443AC0ED001A80ED012A96
:104560006FF0130143E004EE101AB8EEC44AF1EE06
:10457000044A64EE240A90ED024A34EE204AB0EE7A
:10458000441A90ED074AB4EEC14AF1EE10FA03D294
:1045900090ED074AB0EE441A90ED064AB4EEC14AD7
:1045A000F1EE10FA03DD90ED064AB0EE441A90EDFC
:1045B000034A24EE024AD0ED044AB0EE443A04EE37
:1045C000813A31EEC34A24EE044AD0ED054A64EE46
:1045D000A04AF0EE442A44EEA02AF4EEE32AF1EEDB
:1045E00010FA03D2F0EE623AB0EE410A491C1429E7
:1045F000B9DD90ED074AB4EEC04AF1EE10FA03D2ED
:1046000090ED074AB0EE440A90ED064AB4EEC04A77
:10461000F1EE10FA03DD90ED064AB0EE440A80EDAB
:10462000020A7047CAF249719FED100A80ED000A34
:104630009FED0E0A80ED010A9FED0C0A80ED020A43
:10464000B6EE000A80ED030AB6EE000A80ED040A19
:104650009FED070A80ED050A9FED040A80ED060A2A
:104660009FED040A80ED070A70470000000000007B
:10467000CDCCCC3D0000C84200BFFEE700BFFEE746
:1046800070B52DED048B0546F0EE408AB0EE609AD1
:104690009FED460AB0EE408A022D04DB9FED430AEF
:1046A000BDEC048B70BDC5EB8510414901EB800466
:1046B000207C18B1084690F8F80130B99FED3B0A0C
:1046C00084ED010A9FED390AEAE72078062846D2F0
:1046D000DFE800F0030E19242F3AF0EE490AB0EE9D
:1046E000680A04F1140000F05FFCB0EE408A41E07B
:1046F000F0EE490AB0EE680A04F1140000F09BFAEB
:10470000B0EE408A36E0F0EE490AB0EE680A04F1F5
:104710001400FCF79BFDB0EE408A2BE0F0EE490A56
:10472000B0EE680A04F1140000F0B2FBB0EE408A6B
:1047300020E0F0EE490AB0EE680A04F11400FCF73C
:1047400089FBB0EE408A15E0F0EE490AB0EE680A47
:1047500004F11400FFF7F4FEB0EE408A0AE0F0EE38
:10476000490AB0EE680A04F1140000F01DFCB0EE36
:10477000408A00BF00BF94ED030AB4EEC80AF1EE10
:1047800010FA03D294ED030AB0EE408A94ED020AC7
:10479000B4EEC80AF1EE10FA03DD94ED020AB0EEB1
:1047A000408A84ED018AB0EE480A79E700000000F3
:1047B00094F90020022800DB7047C0EB8012074B01
:1047C00003EB8202117439B99FED050AC0EB801228
:1047D00003EB820282ED010A00BFEDE794F90020AD
:1047E0000000000010B50120064981F8F8010024FE
:1047F00005E000212046FFF71FFE601CC4B2022C1A
:10480000F7DB10BD94F9002070B504460D46022C6C
:1048100001DA062D00DB70BDC4EB8410084901F8F5
:1048200020509FED080AC4EB841001EB800080ED5E
:10483000010A29462046FFF7FFFD00BFEBE7000015
:1048400094F9002000000000022800DB7047C0EB54
:104850008011064A02EB810181ED020AC0EB801152
:1048600002EB8101C1ED030A00BFEFE794F90020DC
:1048700070B504460D461646022C00DB70BDC4EB35
:104880008411054A02EB810101F1140032462946E8
:1048900000F06EFA00BFF1E794F9002070B503460E
:1048A0001446022B00DB70BDC3EB8310134D05EBE8
:1048B000800000F1140200201AE000EB400501EB3B
:1048C00085052D6802F16C0646F8205000EB400586
:1048D00001EB85056D68283646F8205000EB400551
:1048E00001EB8505AD68283646F82050451CE8B236
:1048F000A04201DA0A28E0DB00BFD4E794F90020E7
:1049000038B5002005F044FB00BF002240211948C3
:10491000FDF7E4FE002210211748FDF7DFFE00BF7F
:104920009F2005F025FBFF2005F022FB8DF80000FD
:10493000FF2005F01DFB8DF80100FF2005F018FB9E
:104940008DF8020000BF002240210A48FDF7C6FE94
:10495000012210210848FDF7C1FE00BF9DF80000AC
:1049600000049DF8011000EB01209DF8021044188E
:10497000204638BD001C02400000024010B5FFF781
:10498000BFFF0446204610BD2DE9F04105460E4606
:104990001746002005F0FCFA00BF00224021154810
:1049A000FDF79CFE002210211348FDF797FE00BF83
:1049B000032005F0DDFAC5F3072005F0D9FAE8B2C7
:1049C00005F0D6FA002404E0FF2005F0D1FA3055B6
:1049D000641CBC42F8D300BF002240210548FDF70B
:1049E0007DFE012210210448FDF778FE00BFBDE8DE
:1049F000F0810000001C0240000002402DE9F0415F
:104A000005460E461746002005F0C2FA01F026F9C9
:104A100000BF002240211448FDF760FE0022102153
:104A20001248FDF75BFE00BF022005F0A1FAC5F3B6
:104A3000072005F09DFAE8B205F09AFA002403E099
:104A4000305D05F095FA641CBC42F9D300BF00222A
:104A500040210548FDF742FE012210210348FDF7E1
:104A60003DFE00BFBDE8F081001C02400000024096
:104A70007CB504460D461646164800681821B0FB62
:104A8000F1F01549B0FBF1F04FF47A714843019011
:104A90006068B0F5827F0DD12B4600228021204630
:104AA000009600F03DF898B1606D40F02000606520
:104AB00003207CBD00BF019800B908E00198401EAA
:104AC000019020688068C0F3C0100028F3D100BFB7
:104AD0000020EEE7E000002040420F002DE9F04109
:104AE00080460E4614461F460021404605F09CFABB
:104AF000012002F0AFFC002507E0715D404605F0A3
:104B0000B6FA2070641C681CC5B2BD42F5DB0520F6
:104B100002F0A0FC0121404605F086FABDE8F081D4
:104B20002DE9F84F04460D4690461E46DDF82890C4
:104B3000FDF7DAFDA0EB0900371AFDF7D5FD824637
:104B40002C480068C0F3CB307843009045E0701CDF
:104B5000002842D0FDF7C8FDA0EB0A00B84200D201
:104B6000A7BB2068406820F0E000216848606068CA
:104B7000B0F5827F0DD1A068B0F5004F03D0A068DA
:104B8000B0F5806F05D12068006820F040002168F2
:104B90000860A06AB0F5005F0DD100BF2068006812
:104BA00020F40050216808602068006840F400503C
:104BB0002168086000BF012084F8510000BF002078
:104BC00084F8500000BF0320BDE8F88FFFE700988D
:104BD00000B900270098401E009020688068284097
:104BE000A84201D1012000E000204045AFD10020C3
:104BF000EAE70000E00000202DE9F04107460D46FD
:104C000016460021384605F00FFA012002F022FC7A
:104C1000002405E0295D384605F029FA601CC4B27D
:104C2000B442F7DB052002F015FC0121384605F0FF
:104C3000FBF9BDE8F08170B52DED028B0446F0EE76
:104C4000408AB0EE608AB0EE480A204600F029F8AB
:104C5000054694F8E500A84219D084F8E55004F11F
:104C60006C0000EB850090ED000A84ED000A04F171
:104C7000940000EB850090ED000A84ED010A04F138
:104C8000BC0000EB850090ED000A84ED020AF0EE16
:104C9000480AB0EE680A204600F086F9BDEC028BA7
:104CA00070BD014691F8E4305B1ED8B200220EE0E0
:104CB00001F1480303EB8203D3ED000AF4EEC00ACE
:104CC000F1EE10FA01DD104606E0531CDAB291F85D
:104CD000E4305B1E9342EBDC00BF704710B5044626
:104CE000204600F063FA032084F8E400002084F8F2
:104CF000E5001A4903C9C4E91201B1EE040A84EDC2
:104D00001B0A9FED170A84ED250A9FED160A84ED14
:104D10002F0AB0EE080A84ED1C0AB6EE000A84EDF4
:104D2000260A9FED110A84ED300AB7EE000A84EDE1
:104D30001D0AB7EE000A84ED270A9FED0C0A84EDE8
:104D4000310A94ED1B0A84ED000A94ED250A84EDE6
:104D5000010A94ED2F0A84ED020A10BD44CA00082E
:104D600000000000CDCC4C3ECDCCCC3DCDCC4C3D5C
:104D70002DE9F04104460F46154617B10DB10A2D35
:104D800001DDBDE8F08194F8E56084F8E450012D80
:104D900006DD681E8200394604F14800FBF759FD24
:104DA000AE4203DB681E84F8E50001E084F8E560AC
:104DB00094F8E51004F16C0000EB810090ED000A1E
:104DC00084ED000A94F8E51004F1940000EB8100F2
:104DD00090ED000A84ED010A94F8E51004F1BC009E
:104DE00000EB810090ED000A84ED020A00BFC8E7E5
:104DF00070B504460D46082C02DB4FF0FF3070BD45
:104E00005DB10C4A02EBC402928891B2094A52F891
:104E100034000122FDF762FC0AE0064A02EBC402FC
:104E2000928891B2034A52F834000022FDF756FCF2
:104E30000020E4E7580600202DE9FF4F81B00C4622
:104E400015461E460EAF97E8800F04EB0800484455
:104E5000C0B28DF800007819811915980844C0B2C5
:104E60008DF801001498103013990844C0B28DF8E1
:104E700002000AEB0B00C0B28DF8030004230022ED
:104E800069460198FBF7BCFF05B0BDE8F08F000054
:104E900010B52DED068B0446F0EE409AB0EE608A18
:104EA00094ED280AF0EE400AB0EE690A204600F0C0
:104EB0007BF8F0EE408A94ED2C0ADFED260A80EEB6
:104EC000801AB7EE000A31EE000AF7EE000A80EE13
:104ED000801AB0EE419A94ED2B0AF7EE000A70EEBC
:104EE000C90A20EE200A20EE280AD4ED290A09EE8C
:104EF000200A84ED290A94ED290A94F89C1004F103
:104F0000480000EB810080ED000A14F89C0F401C63
:104F1000217E491C90FBF1F201FB1200207014F875
:104F20009C1904F1480000EB810090ED000A84ED2B
:104F30002A0A94ED290A30EE080AD4ED2A0A30EE46
:104F4000600AB0EE40AA84ED28AAB0EE680ABDEC73
:104F5000068B10BDCDCCCC3D10B50446204600F0EC
:104F600025F9542104F14800FBF7CFFC002084F818
:104F70009C009FED0C0A84ED280A9FED0A0A84ED3F
:104F8000290A9FED080A84ED2A0AB7EE000A84ED8B
:104F90002B0AB1EE040A84ED2C0A142084F8B40024
:104FA00010BD00000000000010B52DED108B044670
:104FB000B0EE409AF0EE609A482221467848FBF71E
:104FC00048FC39EE690AF0EE408A9FED760AB0EEB1
:104FD000408A9FED740AB0EE40FA94ED0F0A10EE8D
:104FE000101A084607F056FC41EC1B0B18EE900A0D
:104FF00007F050FC41EC1D0BB0EE4D0AF0EE6D0ACF
:1050000001F032F8B0EE40CAF0EE60CA53EC1B2B50
:1050100051EC1C0B07F0D8F903D29FED620AF0EEB9
:10502000408A94ED060AB4EE490AF1EE10FA05D072
:105030009FED5C0A84ED030A84ED069A94ED000A64
:1050400020EE28AA94ED030A30EE280A84ED030A24
:1050500094ED030AD4ED090AB4EEE00AF1EE10FA79
:1050600004DD94ED090A84ED030A0CE094ED030AD3
:10507000D4ED080AB4EEE00AF1EE10FA03D294ED92
:10508000080A84ED030A94ED040A78EEC0EA94ED70
:105090000E0AF7EE000A30EEC00AD4ED070A20EE41
:1050A000200AD4ED0E0A00EEAE0A84ED070A94ED54
:1050B000020AD4ED070A20EE20EA94ED010AD4EDAD
:1050C000030A20EE200ADFED380AC0EE20AA3AEEED
:1050D0002A0A30EE0E0AB0EE408A94ED0C0AB4EEC5
:1050E000C80AF1EE10FA0AD294ED0C0A38EE400A22
:1050F000D4ED010A80EE201AB0EE41FA10E094EDF2
:105100000B0AB4EEC80AF1EE10FA09DD94ED0B0AB1
:1051100038EE400AD4ED010A80EE201AB0EE41FAD2
:1051200094ED030A30EE4F0A84ED030A94ED030A6E
:10513000D4ED090AB4EEE00AF1EE10FA04DD94EDC4
:10514000090A84ED030A0CE094ED030AD4ED080A81
:10515000B4EEE00AF1EE10FA03D294ED080A84ED01
:10516000030A94ED0C0AB4EEC80AF1EE10FA03D269
:1051700094ED0C0AB0EE408A94ED0B0AB4EEC80A26
:10518000F1EE10FA03DD94ED0B0AB0EE408AC4EDA7
:10519000048AC4ED059AB0EE480ABDEC108B10BD30
:1051A00090FB00200000000000004842B0EE000A22
:1051B00080ED000AB6EE000A80ED010A9FED200A9C
:1051C00080ED020A9FED1F0A80ED030A9FED1D0A84
:1051D00080ED040A9FED1B0A80ED050A9FED190A78
:1051E00080ED060A9FED170A80ED070A9FED150A6C
:1051F00080ED080A9FED140A80ED090AB2EE040A58
:1052000080ED0A0A9FED0F0A80ED0B0A9FED0F0A51
:1052100080ED0C0AB7EE000A80ED0D0A9FED080A3A
:1052200080ED0E0A9FED0A0A80ED0F0A9FED050A38
:1052300080ED100A012180F8441080F84510704775
:10524000CDCCCC3D0000000000401C460000C84210
:10525000CDCC4C3D10B5FDF74DFA06F089FB012889
:1052600001D005F0E1FD10BD00B593B0302107A8D5
:10527000FBF74BFB142102A8FBF747FB00BF002004
:1052800001902548006840F0805023490860084696
:10529000006800F08050019000BF00BF00BF0020F8
:1052A00001901E48006840F440401C4908600846D0
:1052B000006800F44040019000BF00BF012007904B
:1052C0000004089010200B9002200D9041050E91D3
:1052D00008210F914FF4B47110910221119107210F
:1052E000129107A8FDF722FC08B1FBF7ADFE0F20D5
:1052F000029002200390002004904FF4A0500590EB
:105300004FF480500690052102A8FDF7CFFA08B1AE
:10531000FBF79AFE13B000BD403802400070004019
:105320000548006840F47000034908604FF00060D1
:10533000014980390860704788ED00E010B50268C7
:10534000294B98420ED0B0F1804F0BD0274B98429A
:1053500008D0274B984205D0264B984202D0264BC6
:10536000984203D122F070024B681A431E4B9842B8
:1053700020D0B0F1804F1DD01C4B98421AD01C4B4E
:10538000984217D01B4B984214D01B4B984211D017
:105390001A4B98420ED01A4B98420BD0194B984298
:1053A00008D0194B984205D0184B984202D0184BA0
:1053B000984203D122F44072CB681A4322F0800352
:1053C0004C6943EA040202608B68C3620B68836223
:1053D000054B984202D0084B984201D10B690363F8
:1053E0000123436110BD00000000014000040040A3
:1053F00000080040000C0040000401400040014053
:10540000004401400048014000180040001C0040DA
:105410000020004030B501F01F05012404FA05F317
:10542000046A9C430462046A01F01F0502FA05F550
:105430002C43046230BD000030B5056A25F001053B
:105440000562026A4368846924F0700424F003044E
:105450000D682C4322F002028D682A43104DA842A9
:1054600000D103E00F4DA84206D100BF22F0080290
:10547000CD682A4322F00402094DA84202D0094D0A
:10548000A84207D123F4807323F400734D692B43A2
:105490008D692B43436084614D684563026230BD72
:1054A000000001400004014030B5056A25F01005F8
:1054B0000562026A4368846924F4E04424F4407479
:1054C0000D6844EA052422F020028D6842EA0512A4
:1054D000124DA84200D103E0114DA84207D100BFF0
:1054E00022F08002CD6842EA051222F040020B4D04
:1054F000A84202D00A4DA84209D123F4806323F4C4
:1055000000634D6943EA85038D6943EA850343607F
:1055100084614D688563026230BD00000000014077
:105520000004014030B5056A25F480750562026A01
:105530004368C46924F0700424F003040D682C430C
:1055400022F400728D6842EA0522124DA84200D171
:1055500003E0114DA84207D100BF22F40062CD68DC
:1055600042EA052222F480620A4DA84202D00A4D86
:10557000A84209D123F4805323F400534D6943EA30
:1055800005138D6943EA05134360C4614D68C56323
:10559000026230BD000001400004014030B5056AE0
:1055A00025F480550562036A4468C26922F4E0422A
:1055B00022F440720D6842EA052223F400538D68FC
:1055C00043EA0533084DA84202D0084DA84204D151
:1055D00024F480444D6944EA85144460C2614D68F6
:1055E0000564036230BD000000000140000401407A
:1055F000014948637047000000000140014908600C
:10560000704700003C04004008B50E480068006880
:10561000C0F34010A8B14FF47A73012269460948DB
:10562000FEF7CAFD0848007840280ADA9DF8000015
:105630000649054A1278885403480078401C0249FC
:10564000087008BD0C080020080000205008002049
:1056500070B50546AC6B0020E085E0842046FEF77F
:105660003CFB70BD00BF00BF02680C3252E8002F47
:1056700022F4907102680C3242E80013002BF3D13F
:1056800000BF00BF00BF0268143252E8002F22F0B2
:1056900001010268143242E80013002BF3D100BF6D
:1056A000016B01290ED100BF00BF02680C3252E825
:1056B000002F22F0100102680C3242E80013002B88
:1056C000F3D100BF202180F83E1000210163704714
:1056D00010B504462068C06820F040002168C8600A
:1056E000202084F83D002046FEF7A2FE002010BDD9
:1056F000F8B5044694F83E00222873D1A068B0F5AE
:10570000805F0CD1206950B90025A66A20684068E6
:10571000C0F308003080A06A801CA06215E0A56A72
:105720000026A068B0F5805F03D0A06828B9206982
:1057300018B920684068287004E02068406800F0CC
:105740007F002870A06A401CA062E08D401E80B2DD
:10575000E085002844D12068C06820F0200021683E
:10576000C8602068C06820F480702168C860206824
:10577000406920F0010021684861202084F83E0043
:10578000206B012826D10020206300BF00BF2168C4
:105790000C3151E8001F21F0100021680C3141E864
:1057A0000002002AF3D100BF2068006800F010005A
:1057B00010280AD100BF00200090206800680090E7
:1057C00020684068009000BF00BFA18D2046FEF712
:1057D00083FA02E02046FEF77FFD0020F8BD01E0DD
:1057E0000020FBE70220F9E72DE9F84F0446206886
:1057F000006920F44050E16808432168086121698C
:10580000A068084361690843E16908430090206883
:10581000C06849F20C618843009908432168C86058
:105820002068406920F44070A169084321684861FC
:1058300076492068884203D075492068884203D1A0
:10584000FDF70CF9814602E0FDF7F8F88146E069C2
:10585000B0F5004F6CD102206168A0FB01500346F7
:105860001920A9FB007001462A463846FAF7D1FDF7
:105870006421B0FBF1F04FEA001A02206168A0FB3E
:1058800001510B461920A9FB00712A463846FAF748
:10589000C0FD834602206168A0FB01500346192029
:1058A000A9FB00712A463846FAF7B3FD6421B0FB24
:1058B000F1F000EBC00101EB0010ABEB80003221F6
:1058C00001EBC0006421B0FBF1F000F0F8000AEB3E
:1058D000400A02206168A0FB015003461920A9FB81
:1058E000007001462A463846FAF793FD83460220A7
:1058F0006168A0FB015003461920A9FB00712A46EC
:105900003846FAF786FD6421B0FBF1F000EBC001E8
:1059100001EB0010ABEB8000322101EBC0006421F1
:10592000B0FBF1F000F007005044216888606AE0A5
:1059300004206168A0FB015003461920A9FB0070F8
:1059400001462A463846FAF764FD8246042061681B
:10595000A0FB015003461920A9FB007001462A460E
:105960003846FAF756FD6421B0FBF1F000EBC001B8
:1059700001EB0010AAEB8000322101EB0010642142
:10598000B0FBF1F000F0F00A04206168A0FB0170A8
:1059900003461920A9FB00513A462846FAF739FD7B
:1059A0006421B0FBF1F00AEB001A04206168A0FB4F
:1059B00001510B461920A9FB00712A463846FAF717
:1059C00028FD834604206168A0FB0150034619208E
:1059D000A9FB007001462A463846FAF71AFD6421F1
:1059E000B0FBF1F000EBC00101EB0010ABEB80006D
:1059F000322101EB00106421B0FBF1F000F00F0048
:105A0000504421688860BDE8F88F00000010014014
:105A10000014014010B5034699629A85DA8500208A
:105A20001864222083F83E0000BF002083F83C0069
:105A300000BF1868C06840F480701C68E060186897
:105A4000406940F001001C6860611868C06840F05F
:105A500020001C68E060002010BD014691F83D0068
:105A6000212828D18868B0F5805F0BD1086948B932
:105A70000A6A1088C0F308000B685860086A801C26
:105A8000086205E00B6A581C086218780B685860B9
:105A9000C88C401E80B2C88458B90868C06820F01D
:105AA00080000B68D8600868C06840F040000B6850
:105AB000D860002070470220FCE72DE9F041044641
:105AC0000D4617469846069E34E0701C88B32EB1EA
:105AD000FCF70AFEA0EB0800B0422BD900BF00BFC4
